{
  "contractName": "CoinvestingDeFiTokenSale",
  "abi": [
    {
      "inputs": [
        {
          "internalType": "uint256",
          "name": "_levelOneDate",
          "type": "uint256"
        },
        {
          "internalType": "uint256",
          "name": "_levelTwoDate",
          "type": "uint256"
        },
        {
          "internalType": "uint256",
          "name": "_levelThreeDate",
          "type": "uint256"
        },
        {
          "internalType": "uint256",
          "name": "_levelFourDate",
          "type": "uint256"
        }
      ],
      "stateMutability": "payable",
      "type": "constructor",
      "payable": true
    },
    {
      "anonymous": false,
      "inputs": [
        {
          "indexed": true,
          "internalType": "address",
          "name": "previousOwner",
          "type": "address"
        },
        {
          "indexed": true,
          "internalType": "address",
          "name": "newOwner",
          "type": "address"
        }
      ],
      "name": "OwnershipTransferred",
      "type": "event"
    },
    {
      "anonymous": false,
      "inputs": [
        {
          "indexed": false,
          "internalType": "address",
          "name": "",
          "type": "address"
        },
        {
          "indexed": false,
          "internalType": "uint256",
          "name": "",
          "type": "uint256"
        }
      ],
      "name": "Received",
      "type": "event"
    },
    {
      "anonymous": false,
      "inputs": [
        {
          "indexed": false,
          "internalType": "address",
          "name": "_buyer",
          "type": "address"
        },
        {
          "indexed": false,
          "internalType": "uint256",
          "name": "_amount",
          "type": "uint256"
        }
      ],
      "name": "Sell",
      "type": "event"
    },
    {
      "anonymous": false,
      "inputs": [
        {
          "indexed": false,
          "internalType": "uint256",
          "name": "_bonusLevelOne",
          "type": "uint256"
        },
        {
          "indexed": false,
          "internalType": "uint256",
          "name": "_bonusLevelTwo",
          "type": "uint256"
        },
        {
          "indexed": false,
          "internalType": "uint256",
          "name": "_bonusLevelThree",
          "type": "uint256"
        },
        {
          "indexed": false,
          "internalType": "uint256",
          "name": "_bonusLevelFour",
          "type": "uint256"
        }
      ],
      "name": "SetPercents",
      "type": "event"
    },
    {
      "inputs": [],
      "name": "bonusLevelFour",
      "outputs": [
        {
          "internalType": "uint256",
          "name": "",
          "type": "uint256"
        }
      ],
      "stateMutability": "view",
      "type": "function",
      "constant": true
    },
    {
      "inputs": [],
      "name": "bonusLevelOne",
      "outputs": [
        {
          "internalType": "uint256",
          "name": "",
          "type": "uint256"
        }
      ],
      "stateMutability": "view",
      "type": "function",
      "constant": true
    },
    {
      "inputs": [],
      "name": "bonusLevelThree",
      "outputs": [
        {
          "internalType": "uint256",
          "name": "",
          "type": "uint256"
        }
      ],
      "stateMutability": "view",
      "type": "function",
      "constant": true
    },
    {
      "inputs": [],
      "name": "bonusLevelTwo",
      "outputs": [
        {
          "internalType": "uint256",
          "name": "",
          "type": "uint256"
        }
      ],
      "stateMutability": "view",
      "type": "function",
      "constant": true
    },
    {
      "inputs": [],
      "name": "calculatedBonus",
      "outputs": [
        {
          "internalType": "uint256",
          "name": "",
          "type": "uint256"
        }
      ],
      "stateMutability": "view",
      "type": "function",
      "constant": true
    },
    {
      "inputs": [],
      "name": "levelFourDate",
      "outputs": [
        {
          "internalType": "uint256",
          "name": "",
          "type": "uint256"
        }
      ],
      "stateMutability": "view",
      "type": "function",
      "constant": true
    },
    {
      "inputs": [],
      "name": "levelOneDate",
      "outputs": [
        {
          "internalType": "uint256",
          "name": "",
          "type": "uint256"
        }
      ],
      "stateMutability": "view",
      "type": "function",
      "constant": true
    },
    {
      "inputs": [],
      "name": "levelThreeDate",
      "outputs": [
        {
          "internalType": "uint256",
          "name": "",
          "type": "uint256"
        }
      ],
      "stateMutability": "view",
      "type": "function",
      "constant": true
    },
    {
      "inputs": [],
      "name": "levelTwoDate",
      "outputs": [
        {
          "internalType": "uint256",
          "name": "",
          "type": "uint256"
        }
      ],
      "stateMutability": "view",
      "type": "function",
      "constant": true
    },
    {
      "inputs": [],
      "name": "owner",
      "outputs": [
        {
          "internalType": "address",
          "name": "",
          "type": "address"
        }
      ],
      "stateMutability": "view",
      "type": "function",
      "constant": true
    },
    {
      "inputs": [],
      "name": "renounceOwnership",
      "outputs": [],
      "stateMutability": "nonpayable",
      "type": "function"
    },
    {
      "inputs": [],
      "name": "tokenBonus",
      "outputs": [
        {
          "internalType": "uint256",
          "name": "",
          "type": "uint256"
        }
      ],
      "stateMutability": "view",
      "type": "function",
      "constant": true
    },
    {
      "inputs": [],
      "name": "tokenContract",
      "outputs": [
        {
          "internalType": "contract CoinvestingDeFiToken",
          "name": "",
          "type": "address"
        }
      ],
      "stateMutability": "view",
      "type": "function",
      "constant": true
    },
    {
      "inputs": [],
      "name": "tokenPrice",
      "outputs": [
        {
          "internalType": "uint256",
          "name": "",
          "type": "uint256"
        }
      ],
      "stateMutability": "view",
      "type": "function",
      "constant": true
    },
    {
      "inputs": [],
      "name": "tokenSale",
      "outputs": [
        {
          "internalType": "uint256",
          "name": "",
          "type": "uint256"
        }
      ],
      "stateMutability": "view",
      "type": "function",
      "constant": true
    },
    {
      "inputs": [],
      "name": "tokensSold",
      "outputs": [
        {
          "internalType": "uint256",
          "name": "",
          "type": "uint256"
        }
      ],
      "stateMutability": "view",
      "type": "function",
      "constant": true
    },
    {
      "inputs": [
        {
          "internalType": "address",
          "name": "newOwner",
          "type": "address"
        }
      ],
      "name": "transferOwnership",
      "outputs": [],
      "stateMutability": "nonpayable",
      "type": "function"
    },
    {
      "stateMutability": "payable",
      "type": "receive",
      "payable": true
    },
    {
      "inputs": [],
      "name": "endSale",
      "outputs": [],
      "stateMutability": "nonpayable",
      "type": "function"
    },
    {
      "inputs": [
        {
          "internalType": "contract CoinvestingDeFiToken",
          "name": "_tokenContract",
          "type": "address"
        }
      ],
      "name": "setTokenContract",
      "outputs": [],
      "stateMutability": "nonpayable",
      "type": "function"
    },
    {
      "inputs": [
        {
          "internalType": "uint256",
          "name": "_bonusLevelOne",
          "type": "uint256"
        },
        {
          "internalType": "uint256",
          "name": "_bonusLevelTwo",
          "type": "uint256"
        },
        {
          "internalType": "uint256",
          "name": "_bonusLevelThree",
          "type": "uint256"
        },
        {
          "internalType": "uint256",
          "name": "_bonusLevelFour",
          "type": "uint256"
        }
      ],
      "name": "setPercents",
      "outputs": [],
      "stateMutability": "nonpayable",
      "type": "function"
    },
    {
      "inputs": [],
      "name": "withdraw",
      "outputs": [],
      "stateMutability": "nonpayable",
      "type": "function"
    },
    {
      "inputs": [],
      "name": "getBalance",
      "outputs": [
        {
          "internalType": "uint256",
          "name": "",
          "type": "uint256"
        }
      ],
      "stateMutability": "view",
      "type": "function",
      "constant": true
    },
    {
      "inputs": [],
      "name": "getTokenBonusBalance",
      "outputs": [
        {
          "internalType": "uint256",
          "name": "",
          "type": "uint256"
        }
      ],
      "stateMutability": "view",
      "type": "function",
      "constant": true
    },
    {
      "inputs": [],
      "name": "getTokenSaleBalance",
      "outputs": [
        {
          "internalType": "uint256",
          "name": "",
          "type": "uint256"
        }
      ],
      "stateMutability": "view",
      "type": "function",
      "constant": true
    },
    {
      "inputs": [],
      "name": "getPercents",
      "outputs": [
        {
          "internalType": "uint256",
          "name": "levelOne",
          "type": "uint256"
        },
        {
          "internalType": "uint256",
          "name": "levelTwo",
          "type": "uint256"
        },
        {
          "internalType": "uint256",
          "name": "levelThree",
          "type": "uint256"
        },
        {
          "internalType": "uint256",
          "name": "levelFour",
          "type": "uint256"
        }
      ],
      "stateMutability": "view",
      "type": "function",
      "constant": true
    },
    {
      "inputs": [
        {
          "internalType": "uint256",
          "name": "_numberOfTokens",
          "type": "uint256"
        },
        {
          "internalType": "uint256",
          "name": "_tokenPrice",
          "type": "uint256"
        }
      ],
      "name": "buyTokens",
      "outputs": [],
      "stateMutability": "payable",
      "type": "function",
      "payable": true
    }
  ],
  "bytecode": "0x6080604052603260025560236003556014600455600580556000600f60006101000a81548160ff02191690831515021790555060405162002a6838038062002a6883398181016040528101906200005791906200018a565b6000620000696200016b60201b60201c565b9050806000806101000a81548173ffffffffffffffffffffffffffffffffffffffff021916908373ffffffffffffffffffffffffffffffffffffffff1602179055508073ffffffffffffffffffffffffffffffffffffffff16600073ffffffffffffffffffffffffffffffffffffffff167f8be0079c531659141344cd1fd0a4f28419497f9722a3daafe3b4186f6b6457e060405160405180910390a350600184620001169190620001f6565b60078190555062015180836200012d9190620001f6565b6008819055506201518082620001449190620001f6565b60098190555062015180816200015b9190620001f6565b600a8190555050505050620002aa565b600033905090565b600081519050620001848162000290565b92915050565b60008060008060808587031215620001a157600080fd5b6000620001b18782880162000173565b9450506020620001c48782880162000173565b9350506040620001d78782880162000173565b9250506060620001ea8782880162000173565b91505092959194509250565b6000620002038262000257565b9150620002108362000257565b9250817fffffffffffffffffffffffffffffffffffffffffffffffffffffffffffffffff04831182151516156200024c576200024b62000261565b5b828202905092915050565b6000819050919050565b7f4e487b7100000000000000000000000000000000000000000000000000000000600052601160045260246000fd5b6200029b8162000257565b8114620002a757600080fd5b50565b6127ae80620002ba6000396000f3fe6080604052600436106101855760003560e01c806385a8f12b116100d1578063bbcd5bbe1161008a578063c8342de411610064578063c8342de414610530578063dd3bab091461055b578063eef5e27314610586578063f2fde38b146105b1576101c5565b8063bbcd5bbe146104b1578063bdb31f2c146104da578063c4279f5b14610505576101c5565b806385a8f12b146103af5780638da5cb5b146103da578063998077c7146104055780639a523ac014610430578063b3eb78481461045b578063b942031014610486576101c5565b806355a373d61161013e5780637064d509116101185780637064d50914610326578063715018a6146103515780637975ce28146103685780637ff9b59614610384576101c5565b806355a373d6146102a557806363fa05b3146102d0578063653311c8146102fb576101c5565b8063011b7c34146101ca57806312065fe0146101f8578063380d831b146102235780633ccfd60b1461023a57806343d247e414610251578063518ab2a81461027a576101c5565b366101c5577f88a5966d370b9919b20f3e2c13ff65706f196a4e32cc2c12bf57088f8852587433346040516101bb929190611d81565b60405180910390a1005b600080fd5b3480156101d657600080fd5b506101df6105da565b6040516101ef9493929190611f80565b60405180910390f35b34801561020457600080fd5b5061020d6105fa565b60405161021a9190611f65565b60405180910390f35b34801561022f57600080fd5b50610238610602565b005b34801561024657600080fd5b5061024f610893565b005b34801561025d57600080fd5b5061027860048036038101906102739190611aae565b6109c7565b005b34801561028657600080fd5b5061028f610bd6565b60405161029c9190611f65565b60405180910390f35b3480156102b157600080fd5b506102ba610bdc565b6040516102c79190611daa565b60405180910390f35b3480156102dc57600080fd5b506102e5610c02565b6040516102f29190611f65565b60405180910390f35b34801561030757600080fd5b50610310610c08565b60405161031d9190611f65565b60405180910390f35b34801561033257600080fd5b5061033b610c0e565b6040516103489190611f65565b60405180910390f35b34801561035d57600080fd5b50610366610c14565b005b610382600480360381019061037d9190611a72565b610d67565b005b34801561039057600080fd5b50610399611454565b6040516103a69190611f65565b60405180910390f35b3480156103bb57600080fd5b506103c461145a565b6040516103d19190611f65565b60405180910390f35b3480156103e657600080fd5b506103ef611460565b6040516103fc9190611d3d565b60405180910390f35b34801561041157600080fd5b5061041a611489565b6040516104279190611f65565b60405180910390f35b34801561043c57600080fd5b5061044561148f565b6040516104529190611f65565b60405180910390f35b34801561046757600080fd5b50610470611495565b60405161047d9190611f65565b60405180910390f35b34801561049257600080fd5b5061049b61149b565b6040516104a89190611f65565b60405180910390f35b3480156104bd57600080fd5b506104d860048036038101906104d39190611a20565b6114a1565b005b3480156104e657600080fd5b506104ef611760565b6040516104fc9190611f65565b60405180910390f35b34801561051157600080fd5b5061051a611766565b6040516105279190611f65565b60405180910390f35b34801561053c57600080fd5b50610545611770565b6040516105529190611f65565b60405180910390f35b34801561056757600080fd5b50610570611776565b60405161057d9190611f65565b60405180910390f35b34801561059257600080fd5b5061059b611780565b6040516105a89190611f65565b60405180910390f35b3480156105bd57600080fd5b506105d860048036038101906105d391906119ce565b611786565b005b600080600080600254935060035492506004549150600554905090919293565b600047905090565b61060a611948565b73ffffffffffffffffffffffffffffffffffffffff1660008054906101000a900473ffffffffffffffffffffffffffffffffffffffff1673ffffffffffffffffffffffffffffffffffffffff1614610697576040517f08c379a000000000000000000000000000000000000000000000000000000000815260040161068e90611f05565b60405180910390fd5b600160009054906101000a900473ffffffffffffffffffffffffffffffffffffffff1673ffffffffffffffffffffffffffffffffffffffff1663a9059cbb33600160009054906101000a900473ffffffffffffffffffffffffffffffffffffffff1673ffffffffffffffffffffffffffffffffffffffff166370a08231306040518263ffffffff1660e01b81526004016107319190611d3d565b60206040518083038186803b15801561074957600080fd5b505afa15801561075d573d6000803e3d6000fd5b505050506040513d601f19601f820116820180604052508101906107819190611a49565b6040518363ffffffff1660e01b815260040161079e929190611d81565b602060405180830381600087803b1580156107b857600080fd5b505af11580156107cc573d6000803e3d6000fd5b505050506040513d601f19601f820116820180604052508101906107f091906119f7565b61082f576040517f08c379a000000000000000000000000000000000000000000000000000000000815260040161082690611e65565b60405180910390fd5b3373ffffffffffffffffffffffffffffffffffffffff166108fc479081150290604051600060405180830381858888f19350505050158015610875573d6000803e3d6000fd5b506000600f60006101000a81548160ff021916908315150217905550565b61089b611948565b73ffffffffffffffffffffffffffffffffffffffff1660008054906101000a900473ffffffffffffffffffffffffffffffffffffffff1673ffffffffffffffffffffffffffffffffffffffff1614610928576040517f08c379a000000000000000000000000000000000000000000000000000000000815260040161091f90611f05565b60405180910390fd5b6000471161096b576040517f08c379a000000000000000000000000000000000000000000000000000000000815260040161096290611ec5565b60405180910390fd5b6000479050804761097c9190612228565b503373ffffffffffffffffffffffffffffffffffffffff166108fc829081150290604051600060405180830381858888f193505050501580156109c3573d6000803e3d6000fd5b5050565b6109cf611948565b73ffffffffffffffffffffffffffffffffffffffff1660008054906101000a900473ffffffffffffffffffffffffffffffffffffffff1673ffffffffffffffffffffffffffffffffffffffff1614610a5c576040517f08c379a0000000000000000000000000000000000000000000000000000000008152600401610a5390611f05565b60405180910390fd5b6032841115610aa0576040517f08c379a0000000000000000000000000000000000000000000000000000000008152600401610a9790611f25565b60405180910390fd5b600254831115610ae5576040517f08c379a0000000000000000000000000000000000000000000000000000000008152600401610adc90611e25565b60405180910390fd5b600354821115610b2a576040517f08c379a0000000000000000000000000000000000000000000000000000000008152600401610b2190611de5565b60405180910390fd5b600454811115610b6f576040517f08c379a0000000000000000000000000000000000000000000000000000000008152600401610b6690611ee5565b60405180910390fd5b836002819055508260038190555081600481905550806005819055507f08ac6bb5ab70ab4225f70efbf5926d0d26f3eede46fec0f73105cba94b14c1f9600254600354600454600554604051610bc89493929190611f80565b60405180910390a150505050565b600e5481565b600160009054906101000a900473ffffffffffffffffffffffffffffffffffffffff1681565b60045481565b60085481565b600b5481565b610c1c611948565b73ffffffffffffffffffffffffffffffffffffffff1660008054906101000a900473ffffffffffffffffffffffffffffffffffffffff1673ffffffffffffffffffffffffffffffffffffffff1614610ca9576040517f08c379a0000000000000000000000000000000000000000000000000000000008152600401610ca090611f05565b60405180910390fd5b600073ffffffffffffffffffffffffffffffffffffffff1660008054906101000a900473ffffffffffffffffffffffffffffffffffffffff1673ffffffffffffffffffffffffffffffffffffffff167f8be0079c531659141344cd1fd0a4f28419497f9722a3daafe3b4186f6b6457e060405160405180910390a360008060006101000a81548173ffffffffffffffffffffffffffffffffffffffff021916908373ffffffffffffffffffffffffffffffffffffffff160217905550565b600854600754610d779190611fd6565b4211610da257606460025483610d8d91906121ce565b610d97919061202c565b600681905550610e62565b600954600854600754610db59190611fd6565b610dbf9190611fd6565b4211610dea57606460035483610dd591906121ce565b610ddf919061202c565b600681905550610e61565b600a54600954600854600754610e009190611fd6565b610e0a9190611fd6565b610e149190611fd6565b4211610e3f57606460045483610e2a91906121ce565b610e34919061202c565b600681905550610e60565b606460055483610e4f91906121ce565b610e59919061202c565b6006819055505b5b5b8082610e6e91906121ce565b3414610eaf576040517f08c379a0000000000000000000000000000000000000000000000000000000008152600401610ea690611e05565b60405180910390fd5b6000600160009054906101000a900473ffffffffffffffffffffffffffffffffffffffff1673ffffffffffffffffffffffffffffffffffffffff1663313ce5676040518163ffffffff1660e01b815260040160206040518083038186803b158015610f1957600080fd5b505afa158015610f2d573d6000803e3d6000fd5b505050506040513d601f19601f82011682018060405250810190610f519190611b11565b600a610f5d91906120b0565b83600654610f6b9190611fd6565b610f7591906121ce565b9050600160009054906101000a900473ffffffffffffffffffffffffffffffffffffffff1673ffffffffffffffffffffffffffffffffffffffff1663313ce5676040518163ffffffff1660e01b815260040160206040518083038186803b158015610fdf57600080fd5b505afa158015610ff3573d6000803e3d6000fd5b505050506040513d601f19601f820116820180604052508101906110179190611b11565b600a61102391906120b0565b8361102e91906121ce565b600d541015611072576040517f08c379a000000000000000000000000000000000000000000000000000000000815260040161106990611e85565b60405180910390fd5b600160009054906101000a900473ffffffffffffffffffffffffffffffffffffffff1673ffffffffffffffffffffffffffffffffffffffff1663313ce5676040518163ffffffff1660e01b815260040160206040518083038186803b1580156110da57600080fd5b505afa1580156110ee573d6000803e3d6000fd5b505050506040513d601f19601f820116820180604052508101906111129190611b11565b600a61111e91906120b0565b60065461112b91906121ce565b600b54101561116f576040517f08c379a000000000000000000000000000000000000000000000000000000000815260040161116690611f45565b60405180910390fd5b82600e60008282546111819190611fd6565b92505081905550600160009054906101000a900473ffffffffffffffffffffffffffffffffffffffff1673ffffffffffffffffffffffffffffffffffffffff1663313ce5676040518163ffffffff1660e01b815260040160206040518083038186803b1580156111f057600080fd5b505afa158015611204573d6000803e3d6000fd5b505050506040513d601f19601f820116820180604052508101906112289190611b11565b600a61123491906120b0565b8361123f91906121ce565b600d60008282546112509190612228565b92505081905550600160009054906101000a900473ffffffffffffffffffffffffffffffffffffffff1673ffffffffffffffffffffffffffffffffffffffff1663313ce5676040518163ffffffff1660e01b815260040160206040518083038186803b1580156112bf57600080fd5b505afa1580156112d3573d6000803e3d6000fd5b505050506040513d601f19601f820116820180604052508101906112f79190611b11565b600a61130391906120b0565b60065461131091906121ce565b600b60008282546113219190612228565b925050819055507f5e5e995ce3133561afceaa51a9a154d5db228cd7525d34df5185582c18d3df093384604051611359929190611d81565b60405180910390a1600160009054906101000a900473ffffffffffffffffffffffffffffffffffffffff1673ffffffffffffffffffffffffffffffffffffffff1663a9059cbb33836040518363ffffffff1660e01b81526004016113be929190611d58565b602060405180830381600087803b1580156113d857600080fd5b505af11580156113ec573d6000803e3d6000fd5b505050506040513d601f19601f8201168201806040525081019061141091906119f7565b61144f576040517f08c379a000000000000000000000000000000000000000000000000000000000815260040161144690611e45565b60405180910390fd5b505050565b600c5481565b60035481565b60008060009054906101000a900473ffffffffffffffffffffffffffffffffffffffff16905090565b60065481565b60075481565b600a5481565b600d5481565b6114a9611948565b73ffffffffffffffffffffffffffffffffffffffff1660008054906101000a900473ffffffffffffffffffffffffffffffffffffffff1673ffffffffffffffffffffffffffffffffffffffff1614611536576040517f08c379a000000000000000000000000000000000000000000000000000000000815260040161152d90611f05565b60405180910390fd5b600f60009054906101000a900460ff1615611586576040517f08c379a000000000000000000000000000000000000000000000000000000000815260040161157d90611ea5565b60405180910390fd5b80600160006101000a81548173ffffffffffffffffffffffffffffffffffffffff021916908373ffffffffffffffffffffffffffffffffffffffff1602179055506001600f60006101000a81548160ff0219169083151502179055506003600160009054906101000a900473ffffffffffffffffffffffffffffffffffffffff1673ffffffffffffffffffffffffffffffffffffffff166370a08231306040518263ffffffff1660e01b815260040161163f9190611d3d565b60206040518083038186803b15801561165757600080fd5b505afa15801561166b573d6000803e3d6000fd5b505050506040513d601f19601f8201168201806040525081019061168f9190611a49565b611699919061202c565b600b81905550600b54600160009054906101000a900473ffffffffffffffffffffffffffffffffffffffff1673ffffffffffffffffffffffffffffffffffffffff166370a08231306040518263ffffffff1660e01b81526004016116fd9190611d3d565b60206040518083038186803b15801561171557600080fd5b505afa158015611729573d6000803e3d6000fd5b505050506040513d601f19601f8201168201806040525081019061174d9190611a49565b6117579190612228565b600d8190555050565b60055481565b6000600b54905090565b60025481565b6000600d54905090565b60095481565b61178e611948565b73ffffffffffffffffffffffffffffffffffffffff1660008054906101000a900473ffffffffffffffffffffffffffffffffffffffff1673ffffffffffffffffffffffffffffffffffffffff161461181b576040517f08c379a000000000000000000000000000000000000000000000000000000000815260040161181290611f05565b60405180910390fd5b600073ffffffffffffffffffffffffffffffffffffffff168173ffffffffffffffffffffffffffffffffffffffff16141561188b576040517f08c379a000000000000000000000000000000000000000000000000000000000815260040161188290611dc5565b60405180910390fd5b8073ffffffffffffffffffffffffffffffffffffffff1660008054906101000a900473ffffffffffffffffffffffffffffffffffffffff1673ffffffffffffffffffffffffffffffffffffffff167f8be0079c531659141344cd1fd0a4f28419497f9722a3daafe3b4186f6b6457e060405160405180910390a3806000806101000a81548173ffffffffffffffffffffffffffffffffffffffff021916908373ffffffffffffffffffffffffffffffffffffffff16021790555050565b600033905090565b60008135905061195f81612705565b92915050565b6000815190506119748161271c565b92915050565b60008135905061198981612733565b92915050565b60008135905061199e8161274a565b92915050565b6000815190506119b38161274a565b92915050565b6000815190506119c881612761565b92915050565b6000602082840312156119e057600080fd5b60006119ee84828501611950565b91505092915050565b600060208284031215611a0957600080fd5b6000611a1784828501611965565b91505092915050565b600060208284031215611a3257600080fd5b6000611a408482850161197a565b91505092915050565b600060208284031215611a5b57600080fd5b6000611a69848285016119a4565b91505092915050565b60008060408385031215611a8557600080fd5b6000611a938582860161198f565b9250506020611aa48582860161198f565b9150509250929050565b60008060008060808587031215611ac457600080fd5b6000611ad28782880161198f565b9450506020611ae38782880161198f565b9350506040611af48782880161198f565b9250506060611b058782880161198f565b91505092959194509250565b600060208284031215611b2357600080fd5b6000611b31848285016119b9565b91505092915050565b611b43816122d5565b82525050565b611b528161225c565b82525050565b611b61816122e7565b82525050565b6000611b74601e83611fc5565b9150611b7f8261239a565b602082019050919050565b6000611b97602e83611fc5565b9150611ba2826123c3565b604082019050919050565b6000611bba602f83611fc5565b9150611bc582612412565b604082019050919050565b6000611bdd602e83611fc5565b9150611be882612461565b604082019050919050565b6000611c00602183611fc5565b9150611c0b826124b0565b604082019050919050565b6000611c23602383611fc5565b9150611c2e826124ff565b604082019050919050565b6000611c46602983611fc5565b9150611c518261254e565b604082019050919050565b6000611c69602283611fc5565b9150611c748261259d565b604082019050919050565b6000611c8c601283611fc5565b9150611c97826125ec565b602082019050919050565b6000611caf602e83611fc5565b9150611cba82612615565b604082019050919050565b6000611cd2601c83611fc5565b9150611cdd82612664565b602082019050919050565b6000611cf5601283611fc5565b9150611d008261268d565b602082019050919050565b6000611d18602f83611fc5565b9150611d23826126b6565b604082019050919050565b611d37816122be565b82525050565b6000602082019050611d526000830184611b49565b92915050565b6000604082019050611d6d6000830185611b3a565b611d7a6020830184611d2e565b9392505050565b6000604082019050611d966000830185611b49565b611da36020830184611d2e565b9392505050565b6000602082019050611dbf6000830184611b58565b92915050565b60006020820190508181036000830152611dde81611b67565b9050919050565b60006020820190508181036000830152611dfe81611b8a565b9050919050565b60006020820190508181036000830152611e1e81611bad565b9050919050565b60006020820190508181036000830152611e3e81611bd0565b9050919050565b60006020820190508181036000830152611e5e81611bf3565b9050919050565b60006020820190508181036000830152611e7e81611c16565b9050919050565b60006020820190508181036000830152611e9e81611c39565b9050919050565b60006020820190508181036000830152611ebe81611c5c565b9050919050565b60006020820190508181036000830152611ede81611c7f565b9050919050565b60006020820190508181036000830152611efe81611ca2565b9050919050565b60006020820190508181036000830152611f1e81611cc5565b9050919050565b60006020820190508181036000830152611f3e81611ce8565b9050919050565b60006020820190508181036000830152611f5e81611d0b565b9050919050565b6000602082019050611f7a6000830184611d2e565b92915050565b6000608082019050611f956000830187611d2e565b611fa26020830186611d2e565b611faf6040830185611d2e565b611fbc6060830184611d2e565b95945050505050565b600082825260208201905092915050565b6000611fe1826122be565b9150611fec836122be565b9250827fffffffffffffffffffffffffffffffffffffffffffffffffffffffffffffffff038211156120215761202061232f565b5b828201905092915050565b6000612037826122be565b9150612042836122be565b9250826120525761205161235e565b5b828204905092915050565b6000808291508390505b60018511156120a7578086048111156120835761208261232f565b5b60018516156120925780820291505b80810290506120a08561238d565b9450612067565b94509492505050565b60006120bb826122be565b91506120c6836122c8565b92506120f37fffffffffffffffffffffffffffffffffffffffffffffffffffffffffffffffff84846120fb565b905092915050565b60008261210b57600190506121c7565b8161211957600090506121c7565b816001811461212f576002811461213957612168565b60019150506121c7565b60ff84111561214b5761214a61232f565b5b8360020a9150848211156121625761216161232f565b5b506121c7565b5060208310610133831016604e8410600b841016171561219d5782820a9050838111156121985761219761232f565b5b6121c7565b6121aa848484600161205d565b925090508184048111156121c1576121c061232f565b5b81810290505b9392505050565b60006121d9826122be565b91506121e4836122be565b9250817fffffffffffffffffffffffffffffffffffffffffffffffffffffffffffffffff048311821515161561221d5761221c61232f565b5b828202905092915050565b6000612233826122be565b915061223e836122be565b9250828210156122515761225061232f565b5b828203905092915050565b60006122678261229e565b9050919050565b60006122798261229e565b9050919050565b60008115159050919050565b60006122978261226e565b9050919050565b600073ffffffffffffffffffffffffffffffffffffffff82169050919050565b6000819050919050565b600060ff82169050919050565b60006122e08261230b565b9050919050565b60006122f2826122f9565b9050919050565b60006123048261229e565b9050919050565b60006123168261231d565b9050919050565b60006123288261229e565b9050919050565b7f4e487b7100000000000000000000000000000000000000000000000000000000600052601160045260246000fd5b7f4e487b7100000000000000000000000000000000000000000000000000000000600052601260045260246000fd5b60008160011c9050919050565b7f4e6577206f776e657220697320746865207a65726f20616464726573732e0000600082015250565b7f4c33202d20546865206d6178696d756d2076616c7565206d757374206265207460008201527f68652063757272656e74204c322e000000000000000000000000000000000000602082015250565b7f4e756d626572206f6620746f6b656e7320646f6573206e6f74206d617463682060008201527f77697468207468652076616c7565210000000000000000000000000000000000602082015250565b7f4c32202d20546865206d6178696d756d2076616c7565206d757374206265207460008201527f68652063757272656e74204c312e000000000000000000000000000000000000602082015250565b7f536f6d652070726f626c656d207769746820746f6b656e207472616e7366657260008201527f2100000000000000000000000000000000000000000000000000000000000000602082015250565b7f556e61626c6520746f207472616e7366657220746f6b656e7320746f2061646d60008201527f696e210000000000000000000000000000000000000000000000000000000000602082015250565b7f54686520636f6e747261637420646f6573206e6f74206861766520656e6f756760008201527f6820544f4b454e53210000000000000000000000000000000000000000000000602082015250565b7f53657420636f6e747261637420746f6b656e206973206e6f7420616c6c6f776560008201527f6421000000000000000000000000000000000000000000000000000000000000602082015250565b7f496e737566696369656e742066756e6473210000000000000000000000000000600082015250565b7f4c34202d20546865206d6178696d756d2076616c7565206d757374206265207460008201527f68652063757272656e74204c332e000000000000000000000000000000000000602082015250565b7f5468652063616c6c6572206973206e6f7420746865206f776e65722e00000000600082015250565b7f4c31202d204d6178696d756d20353020252e0000000000000000000000000000600082015250565b7f54686520636f6e747261637420646f6573206e6f74206861766520656e6f756760008201527f6820424f4e555320746f6b656e73210000000000000000000000000000000000602082015250565b61270e8161225c565b811461271957600080fd5b50565b61272581612280565b811461273057600080fd5b50565b61273c8161228c565b811461274757600080fd5b50565b612753816122be565b811461275e57600080fd5b50565b61276a816122c8565b811461277557600080fd5b5056fea26469706673582212209c9a8cce30315a3a9b1aa48c53588900917489c2113994b09e918a1edab019e964736f6c63430008030033",
  "immutableReferences": {},
  "source": "// SPDX-License-Identifier: GPL-3.0\npragma solidity >=0.8.0 <0.9.0;\n\nimport \"./CoinvestingDeFiToken.sol\";\nimport \"./utils/Ownable.sol\";\n\ncontract CoinvestingDeFiTokenSale is Ownable {\n    // Public variables\n    CoinvestingDeFiToken public tokenContract;\n    uint public bonusLevelOne = 50;\n    uint public bonusLevelTwo = 35;\n    uint public bonusLevelThree = 20;\n    uint public bonusLevelFour = 5;\n    uint public calculatedBonus;    \n    uint public levelOneDate;\n    uint public levelTwoDate;\n    uint public levelThreeDate;\n    uint public levelFourDate;\n    uint public tokenBonus;\n    uint public tokenPrice;\n    uint public tokenSale;\n    uint public tokensSold;\n    \n    // Internal variables\n    bool internal contractSeted = false;\n\n    // Events\n    event Received(address, uint);\n    event Sell(address _buyer, uint _amount);\n    event SetPercents(uint _bonusLevelOne, uint _bonusLevelTwo, uint _bonusLevelThree, uint _bonusLevelFour);\n    \n    // Modifiers\n    modifier canContractSet() {\n        require(!contractSeted, \"Set contract token is not allowed!\");\n        _;\n    }\n\n    // Constructor\n    constructor(uint _levelOneDate, uint _levelTwoDate, uint _levelThreeDate, uint _levelFourDate) payable {\n        levelOneDate = _levelOneDate * 1 seconds;\n        levelTwoDate = _levelTwoDate * 1 days;\n        levelThreeDate = _levelThreeDate * 1 days;\n        levelFourDate = _levelFourDate * 1 days;\n    }\n\n    // Receive function\n    receive() external payable {\n        emit Received(msg.sender, msg.value);\n    }\n\n    // External functions\n    function endSale() external onlyOwner {\n        require(\n            tokenContract.transfer(\n                msg.sender,\n                tokenContract.balanceOf(address(this))\n            ),\n            \"Unable to transfer tokens to admin!\"\n        );\n        // destroy contract\n        payable(msg.sender).transfer(address(this).balance);\n        contractSeted = false;\n    }\n\n    function setTokenContract(CoinvestingDeFiToken _tokenContract) external onlyOwner canContractSet {\n        tokenContract = _tokenContract;\n        contractSeted = true;\n        tokenBonus = tokenContract.balanceOf(address(this)) / 3;\n        tokenSale = tokenContract.balanceOf(address(this)) - tokenBonus;        \n    }\n\n    function setPercents(\n        uint _bonusLevelOne,\n        uint _bonusLevelTwo,\n        uint _bonusLevelThree,\n        uint _bonusLevelFour\n    ) \n    external \n    onlyOwner {\n        require(_bonusLevelOne <= 50, \"L1 - Maximum 50 %.\");\n        require(_bonusLevelTwo <= bonusLevelOne, \"L2 - The maximum value must be the current L1.\");\n        require(_bonusLevelThree <= bonusLevelTwo, \"L3 - The maximum value must be the current L2.\");\n        require(_bonusLevelFour <= bonusLevelThree, \"L4 - The maximum value must be the current L3.\");\n        bonusLevelOne = _bonusLevelOne;\n        bonusLevelTwo = _bonusLevelTwo;\n        bonusLevelThree = _bonusLevelThree;\n        bonusLevelFour = _bonusLevelFour;\n        emit SetPercents(bonusLevelOne, bonusLevelTwo, bonusLevelThree, bonusLevelFour);\n    }\n\n    function withdraw() external onlyOwner {\n        require(address(this).balance > 0, \"Insuficient funds!\");\n        uint amount = address(this).balance;\n        // sending to prevent re-entrancy attacks\n        address(this).balance - amount;\n        payable(msg.sender).transfer(amount);\n    }\n\n    // External functions that are view\n    function getBalance() external view returns(uint) {\n        return address(this).balance;\n    }\n\n    function getTokenBonusBalance() external view returns(uint) {\n        return tokenBonus;\n    }\n\n    function getTokenSaleBalance() external view returns(uint) {\n        return tokenSale;\n    }\n\n    function getPercents() \n    external \n    view \n    returns(\n        uint levelOne,\n        uint levelTwo,\n        uint levelThree,\n        uint levelFour)\n    {\n        levelOne = bonusLevelOne;\n        levelTwo = bonusLevelTwo;\n        levelThree = bonusLevelThree;\n        levelFour = bonusLevelFour;\n    }\n\n    // Public functions\n    function buyTokens(uint _numberOfTokens, uint _tokenPrice) public payable {\n        if (block.timestamp <= levelOneDate + levelTwoDate) {\n            calculatedBonus = _numberOfTokens * bonusLevelOne / 100;\n        }\n        else if (block.timestamp <= levelOneDate + levelTwoDate + levelThreeDate) {\n            calculatedBonus = _numberOfTokens * bonusLevelTwo / 100;\n        }\n        else if (block.timestamp <= levelOneDate + levelTwoDate + levelThreeDate + levelFourDate) {\n            calculatedBonus = _numberOfTokens * bonusLevelThree / 100;\n        }\n        else {\n            calculatedBonus = _numberOfTokens * bonusLevelFour / 100;\n        }\n\n        require(\n            msg.value == _numberOfTokens * _tokenPrice,\n            \"Number of tokens does not match with the value!\"\n        );\n            \n        uint scaledAmount = (calculatedBonus + _numberOfTokens) * 10 ** tokenContract.decimals();\n        require(\n            tokenSale >= _numberOfTokens * 10 ** tokenContract.decimals(),\n            \"The contract does not have enough TOKENS!\"\n        );\n\n        require(\n            tokenBonus >= calculatedBonus * 10 ** tokenContract.decimals(),\n            \"The contract does not have enough BONUS tokens!\"\n        );\n\n        tokensSold += _numberOfTokens;\n        tokenSale -= _numberOfTokens * 10 ** tokenContract.decimals();\n        tokenBonus -= calculatedBonus * 10 ** tokenContract.decimals();\n        emit Sell(msg.sender, _numberOfTokens);\n        require(\n            tokenContract.transfer(payable(msg.sender), scaledAmount),\n            \"Some problem with token transfer!\"\n        );        \n    }\n}\n",
  "sourcePath": "/home/dev/Playground/coinvesting-core-ropsten/contracts/CoinvestingDeFiTokenSale.sol",
  "compiler": {
    "name": "solc",
    "version": "0.8.3+commit.8d00100c.Emscripten.clang"
  },
  "schemaVersion": "3.3.4",
  "updatedAt": "2021-04-10T07:26:55.543Z",
  "networkType": "ethereum",
  "devdoc": {
    "kind": "dev",
    "methods": {
      "owner()": {
        "details": "Returns the address of the current owner."
      },
      "renounceOwnership()": {
        "details": "Leaves the contract without owner. It will not be possible to call `onlyOwner` functions anymore. Can only be called by the current owner. NOTE: Renouncing ownership will leave the contract without an owner, thereby removing any functionality that is only available to the owner."
      },
      "transferOwnership(address)": {
        "details": "Transfers ownership of the contract to a new account (`newOwner`). Can only be called by the current owner."
      }
    },
    "version": 1
  },
  "userdoc": {
    "kind": "user",
    "methods": {},
    "version": 1
  }
}