{
  "contractName": "CoinvestingDeFiToken",
  "abi": [
    {
      "inputs": [
        {
          "internalType": "string",
          "name": "name",
          "type": "string"
        },
        {
          "internalType": "string",
          "name": "symbol",
          "type": "string"
        },
        {
          "internalType": "uint256",
          "name": "_initialSupply",
          "type": "uint256"
        },
        {
          "internalType": "address",
          "name": "_devCommunityReserve",
          "type": "address"
        },
        {
          "internalType": "address",
          "name": "_ecosystemGrantsReserve",
          "type": "address"
        },
        {
          "internalType": "address",
          "name": "_foundersAccount1",
          "type": "address"
        },
        {
          "internalType": "address",
          "name": "_foundersAccount2",
          "type": "address"
        },
        {
          "internalType": "address",
          "name": "_RewardsAndBonusLPReserve",
          "type": "address"
        },
        {
          "internalType": "address",
          "name": "_saleReserve",
          "type": "address"
        }
      ],
      "stateMutability": "payable",
      "type": "constructor",
      "payable": true
    },
    {
      "anonymous": false,
      "inputs": [
        {
          "indexed": true,
          "internalType": "address",
          "name": "owner",
          "type": "address"
        },
        {
          "indexed": true,
          "internalType": "address",
          "name": "spender",
          "type": "address"
        },
        {
          "indexed": false,
          "internalType": "uint256",
          "name": "value",
          "type": "uint256"
        }
      ],
      "name": "Approval",
      "type": "event"
    },
    {
      "anonymous": false,
      "inputs": [],
      "name": "MintFinished",
      "type": "event"
    },
    {
      "anonymous": false,
      "inputs": [
        {
          "indexed": true,
          "internalType": "address",
          "name": "previousOwner",
          "type": "address"
        },
        {
          "indexed": true,
          "internalType": "address",
          "name": "newOwner",
          "type": "address"
        }
      ],
      "name": "OwnershipTransferred",
      "type": "event"
    },
    {
      "anonymous": false,
      "inputs": [
        {
          "indexed": false,
          "internalType": "address",
          "name": "",
          "type": "address"
        },
        {
          "indexed": false,
          "internalType": "uint256",
          "name": "",
          "type": "uint256"
        }
      ],
      "name": "Received",
      "type": "event"
    },
    {
      "anonymous": false,
      "inputs": [
        {
          "indexed": true,
          "internalType": "address",
          "name": "from",
          "type": "address"
        },
        {
          "indexed": true,
          "internalType": "address",
          "name": "to",
          "type": "address"
        },
        {
          "indexed": false,
          "internalType": "uint256",
          "name": "value",
          "type": "uint256"
        }
      ],
      "name": "Transfer",
      "type": "event"
    },
    {
      "inputs": [],
      "name": "RewardsAndBonusLPReserve",
      "outputs": [
        {
          "internalType": "address",
          "name": "",
          "type": "address"
        }
      ],
      "stateMutability": "view",
      "type": "function",
      "constant": true
    },
    {
      "inputs": [
        {
          "internalType": "address",
          "name": "owner",
          "type": "address"
        },
        {
          "internalType": "address",
          "name": "spender",
          "type": "address"
        }
      ],
      "name": "allowance",
      "outputs": [
        {
          "internalType": "uint256",
          "name": "",
          "type": "uint256"
        }
      ],
      "stateMutability": "view",
      "type": "function",
      "constant": true
    },
    {
      "inputs": [
        {
          "internalType": "address",
          "name": "spender",
          "type": "address"
        },
        {
          "internalType": "uint256",
          "name": "amount",
          "type": "uint256"
        }
      ],
      "name": "approve",
      "outputs": [
        {
          "internalType": "bool",
          "name": "",
          "type": "bool"
        }
      ],
      "stateMutability": "nonpayable",
      "type": "function"
    },
    {
      "inputs": [
        {
          "internalType": "address",
          "name": "account",
          "type": "address"
        }
      ],
      "name": "balanceOf",
      "outputs": [
        {
          "internalType": "uint256",
          "name": "",
          "type": "uint256"
        }
      ],
      "stateMutability": "view",
      "type": "function",
      "constant": true
    },
    {
      "inputs": [],
      "name": "decimals",
      "outputs": [
        {
          "internalType": "uint8",
          "name": "",
          "type": "uint8"
        }
      ],
      "stateMutability": "view",
      "type": "function",
      "constant": true
    },
    {
      "inputs": [
        {
          "internalType": "address",
          "name": "spender",
          "type": "address"
        },
        {
          "internalType": "uint256",
          "name": "subtractedValue",
          "type": "uint256"
        }
      ],
      "name": "decreaseAllowance",
      "outputs": [
        {
          "internalType": "bool",
          "name": "",
          "type": "bool"
        }
      ],
      "stateMutability": "nonpayable",
      "type": "function"
    },
    {
      "inputs": [],
      "name": "devCommunityReserve",
      "outputs": [
        {
          "internalType": "address",
          "name": "",
          "type": "address"
        }
      ],
      "stateMutability": "view",
      "type": "function",
      "constant": true
    },
    {
      "inputs": [],
      "name": "ecosystemGrantsReserve",
      "outputs": [
        {
          "internalType": "address",
          "name": "",
          "type": "address"
        }
      ],
      "stateMutability": "view",
      "type": "function",
      "constant": true
    },
    {
      "inputs": [],
      "name": "foundersAccount1",
      "outputs": [
        {
          "internalType": "address",
          "name": "",
          "type": "address"
        }
      ],
      "stateMutability": "view",
      "type": "function",
      "constant": true
    },
    {
      "inputs": [],
      "name": "foundersAccount2",
      "outputs": [
        {
          "internalType": "address",
          "name": "",
          "type": "address"
        }
      ],
      "stateMutability": "view",
      "type": "function",
      "constant": true
    },
    {
      "inputs": [
        {
          "internalType": "address",
          "name": "spender",
          "type": "address"
        },
        {
          "internalType": "uint256",
          "name": "addedValue",
          "type": "uint256"
        }
      ],
      "name": "increaseAllowance",
      "outputs": [
        {
          "internalType": "bool",
          "name": "",
          "type": "bool"
        }
      ],
      "stateMutability": "nonpayable",
      "type": "function"
    },
    {
      "inputs": [],
      "name": "name",
      "outputs": [
        {
          "internalType": "string",
          "name": "",
          "type": "string"
        }
      ],
      "stateMutability": "view",
      "type": "function",
      "constant": true
    },
    {
      "inputs": [],
      "name": "owner",
      "outputs": [
        {
          "internalType": "address",
          "name": "",
          "type": "address"
        }
      ],
      "stateMutability": "view",
      "type": "function",
      "constant": true
    },
    {
      "inputs": [],
      "name": "renounceOwnership",
      "outputs": [],
      "stateMutability": "nonpayable",
      "type": "function"
    },
    {
      "inputs": [],
      "name": "saleReserve",
      "outputs": [
        {
          "internalType": "address",
          "name": "",
          "type": "address"
        }
      ],
      "stateMutability": "view",
      "type": "function",
      "constant": true
    },
    {
      "inputs": [],
      "name": "symbol",
      "outputs": [
        {
          "internalType": "string",
          "name": "",
          "type": "string"
        }
      ],
      "stateMutability": "view",
      "type": "function",
      "constant": true
    },
    {
      "inputs": [],
      "name": "totalSupply",
      "outputs": [
        {
          "internalType": "uint256",
          "name": "",
          "type": "uint256"
        }
      ],
      "stateMutability": "view",
      "type": "function",
      "constant": true
    },
    {
      "inputs": [
        {
          "internalType": "address",
          "name": "recipient",
          "type": "address"
        },
        {
          "internalType": "uint256",
          "name": "amount",
          "type": "uint256"
        }
      ],
      "name": "transfer",
      "outputs": [
        {
          "internalType": "bool",
          "name": "",
          "type": "bool"
        }
      ],
      "stateMutability": "nonpayable",
      "type": "function"
    },
    {
      "inputs": [
        {
          "internalType": "address",
          "name": "sender",
          "type": "address"
        },
        {
          "internalType": "address",
          "name": "recipient",
          "type": "address"
        },
        {
          "internalType": "uint256",
          "name": "amount",
          "type": "uint256"
        }
      ],
      "name": "transferFrom",
      "outputs": [
        {
          "internalType": "bool",
          "name": "",
          "type": "bool"
        }
      ],
      "stateMutability": "nonpayable",
      "type": "function"
    },
    {
      "inputs": [
        {
          "internalType": "address",
          "name": "newOwner",
          "type": "address"
        }
      ],
      "name": "transferOwnership",
      "outputs": [],
      "stateMutability": "nonpayable",
      "type": "function"
    },
    {
      "stateMutability": "payable",
      "type": "receive",
      "payable": true
    },
    {
      "inputs": [],
      "name": "withdraw",
      "outputs": [],
      "stateMutability": "nonpayable",
      "type": "function"
    },
    {
      "inputs": [
        {
          "internalType": "address",
          "name": "account",
          "type": "address"
        },
        {
          "internalType": "uint256",
          "name": "amount",
          "type": "uint256"
        }
      ],
      "name": "mint",
      "outputs": [],
      "stateMutability": "nonpayable",
      "type": "function"
    }
  ],
  "bytecode": "0x608060405260008060146101000a81548160ff02191690831515021790555060405162002f5d38038062002f5d833981810160405281019062000043919062000935565b88886000620000576200053660201b60201c565b9050806000806101000a81548173ffffffffffffffffffffffffffffffffffffffff021916908373ffffffffffffffffffffffffffffffffffffffff1602179055508073ffffffffffffffffffffffffffffffffffffffff16600073ffffffffffffffffffffffffffffffffffffffff167f8be0079c531659141344cd1fd0a4f28419497f9722a3daafe3b4186f6b6457e060405160405180910390a35081600490805190602001906200010d929190620007e5565b50806005908051906020019062000126929190620007e5565b506012600660006101000a81548160ff021916908360ff160217905550505085600660016101000a81548173ffffffffffffffffffffffffffffffffffffffff021916908373ffffffffffffffffffffffffffffffffffffffff16021790555084600760006101000a81548173ffffffffffffffffffffffffffffffffffffffff021916908373ffffffffffffffffffffffffffffffffffffffff16021790555083600860006101000a81548173ffffffffffffffffffffffffffffffffffffffff021916908373ffffffffffffffffffffffffffffffffffffffff16021790555082600960006101000a81548173ffffffffffffffffffffffffffffffffffffffff021916908373ffffffffffffffffffffffffffffffffffffffff16021790555080600b60006101000a81548173ffffffffffffffffffffffffffffffffffffffff021916908373ffffffffffffffffffffffffffffffffffffffff16021790555081600a60006101000a81548173ffffffffffffffffffffffffffffffffffffffff021916908373ffffffffffffffffffffffffffffffffffffffff160217905550600087111562000527576000600a88620002e6919062000dd8565b1462000329576040517f08c379a0000000000000000000000000000000000000000000000000000000008152600401620003209062000aed565b60405180910390fd5b60006064602d896200033c919062000c97565b62000348919062000c5f565b90506000606460168a6200035d919062000c97565b62000369919062000c5f565b905060006064600f8b6200037e919062000c97565b6200038a919062000c5f565b90506000606460088c6200039f919062000c97565b620003ab919062000c5f565b90506000606460058d620003c0919062000c97565b620003cc919062000c5f565b905062000402600660019054906101000a900473ffffffffffffffffffffffffffffffffffffffff16836200053e60201b60201c565b62000436600760009054906101000a900473ffffffffffffffffffffffffffffffffffffffff16856200053e60201b60201c565b6200046a600860009054906101000a900473ffffffffffffffffffffffffffffffffffffffff16826200053e60201b60201c565b6200049e600960009054906101000a900473ffffffffffffffffffffffffffffffffffffffff16826200053e60201b60201c565b620004d2600a60009054906101000a900473ffffffffffffffffffffffffffffffffffffffff16866200053e60201b60201c565b62000506600b60009054906101000a900473ffffffffffffffffffffffffffffffffffffffff16846200053e60201b60201c565b6001600060146101000a81548160ff02191690831515021790555050505050505b50505050505050505062001027565b600033905090565b6200054e6200053660201b60201c565b73ffffffffffffffffffffffffffffffffffffffff1660008054906101000a900473ffffffffffffffffffffffffffffffffffffffff1673ffffffffffffffffffffffffffffffffffffffff1614620005de576040517f08c379a0000000000000000000000000000000000000000000000000000000008152600401620005d59062000b31565b60405180910390fd5b600060149054906101000a900460ff161562000631576040517f08c379a0000000000000000000000000000000000000000000000000000000008152600401620006289062000b0f565b60405180910390fd5b6200064382826200064760201b60201c565b5050565b600073ffffffffffffffffffffffffffffffffffffffff168273ffffffffffffffffffffffffffffffffffffffff161415620006ba576040517f08c379a0000000000000000000000000000000000000000000000000000000008152600401620006b19062000b53565b60405180910390fd5b620006ce60008383620007e060201b60201c565b80600354620006de919062000c02565b60038190555080600160008473ffffffffffffffffffffffffffffffffffffffff1673ffffffffffffffffffffffffffffffffffffffff1681526020019081526020016000205462000731919062000c02565b600160008473ffffffffffffffffffffffffffffffffffffffff1673ffffffffffffffffffffffffffffffffffffffff168152602001908152602001600020819055508173ffffffffffffffffffffffffffffffffffffffff16600073ffffffffffffffffffffffffffffffffffffffff167fddf252ad1be2c89b69c2b068fc378daa952ba7f163c4a11628f55a4df523b3ef83604051620007d4919062000b75565b60405180910390a35050565b505050565b828054620007f39062000d6c565b90600052602060002090601f01602090048101928262000817576000855562000863565b82601f106200083257805160ff191683800117855562000863565b8280016001018555821562000863579182015b828111156200086257825182559160200191906001019062000845565b5b50905062000872919062000876565b5090565b5b808211156200089157600081600090555060010162000877565b5090565b6000620008ac620008a68462000bbb565b62000b92565b905082815260208101848484011115620008c557600080fd5b620008d284828562000d36565b509392505050565b600081519050620008eb8162000ff3565b92915050565b600082601f8301126200090357600080fd5b81516200091584826020860162000895565b91505092915050565b6000815190506200092f816200100d565b92915050565b60008060008060008060008060006101208a8c0312156200095557600080fd5b60008a015167ffffffffffffffff8111156200097057600080fd5b6200097e8c828d01620008f1565b99505060208a015167ffffffffffffffff8111156200099c57600080fd5b620009aa8c828d01620008f1565b9850506040620009bd8c828d016200091e565b9750506060620009d08c828d01620008da565b9650506080620009e38c828d01620008da565b95505060a0620009f68c828d01620008da565b94505060c062000a098c828d01620008da565b93505060e062000a1c8c828d01620008da565b92505061010062000a308c828d01620008da565b9150509295985092959850929598565b600062000a4f602a8362000bf1565b915062000a5c8262000edd565b604082019050919050565b600062000a7660238362000bf1565b915062000a838262000f2c565b604082019050919050565b600062000a9d601c8362000bf1565b915062000aaa8262000f7b565b602082019050919050565b600062000ac460258362000bf1565b915062000ad18262000fa4565b604082019050919050565b62000ae78162000d2c565b82525050565b6000602082019050818103600083015262000b088162000a40565b9050919050565b6000602082019050818103600083015262000b2a8162000a67565b9050919050565b6000602082019050818103600083015262000b4c8162000a8e565b9050919050565b6000602082019050818103600083015262000b6e8162000ab5565b9050919050565b600060208201905062000b8c600083018462000adc565b92915050565b600062000b9e62000bb1565b905062000bac828262000da2565b919050565b6000604051905090565b600067ffffffffffffffff82111562000bd95762000bd862000e9d565b5b62000be48262000ecc565b9050602081019050919050565b600082825260208201905092915050565b600062000c0f8262000d2c565b915062000c1c8362000d2c565b9250827fffffffffffffffffffffffffffffffffffffffffffffffffffffffffffffffff0382111562000c545762000c5362000e10565b5b828201905092915050565b600062000c6c8262000d2c565b915062000c798362000d2c565b92508262000c8c5762000c8b62000e3f565b5b828204905092915050565b600062000ca48262000d2c565b915062000cb18362000d2c565b9250817fffffffffffffffffffffffffffffffffffffffffffffffffffffffffffffffff048311821515161562000ced5762000cec62000e10565b5b828202905092915050565b600062000d058262000d0c565b9050919050565b600073ffffffffffffffffffffffffffffffffffffffff82169050919050565b6000819050919050565b60005b8381101562000d5657808201518184015260208101905062000d39565b8381111562000d66576000848401525b50505050565b6000600282049050600182168062000d8557607f821691505b6020821081141562000d9c5762000d9b62000e6e565b5b50919050565b62000dad8262000ecc565b810181811067ffffffffffffffff8211171562000dcf5762000dce62000e9d565b5b80604052505050565b600062000de58262000d2c565b915062000df28362000d2c565b92508262000e055762000e0462000e3f565b5b828206905092915050565b7f4e487b7100000000000000000000000000000000000000000000000000000000600052601160045260246000fd5b7f4e487b7100000000000000000000000000000000000000000000000000000000600052601260045260246000fd5b7f4e487b7100000000000000000000000000000000000000000000000000000000600052602260045260246000fd5b7f4e487b7100000000000000000000000000000000000000000000000000000000600052604160045260246000fd5b6000601f19601f8301169050919050565b7f5f696e697469616c537570706c792068617320746f2062652061206d756c746960008201527f706c65206f662031302100000000000000000000000000000000000000000000602082015250565b7f4372656174696e67206e657720746f6b656e73206973206e6f7420616c6c6f7760008201527f65642e0000000000000000000000000000000000000000000000000000000000602082015250565b7f5468652063616c6c6572206973206e6f7420746865206f776e65722e00000000600082015250565b7f4d696e7420746f20746865207a65726f2061646472657373206e6f7420616c6c60008201527f6f7765642e000000000000000000000000000000000000000000000000000000602082015250565b62000ffe8162000cf8565b81146200100a57600080fd5b50565b620010188162000d2c565b81146200102457600080fd5b50565b611f2680620010376000396000f3fe6080604052600436106101395760003560e01c806365d81443116100ab578063a457c2d71161006f578063a457c2d71461044c578063a9059cbb14610489578063aa82fc2f146104c6578063dd62ed3e146104f1578063f2fde38b1461052e578063f53244ad1461055757610179565b806365d814431461037757806370a08231146103a2578063715018a6146103df5780638da5cb5b146103f657806395d89b411461042157610179565b8063313ce567116100fd578063313ce5671461027957806333bdd953146102a457806339509351146102cf5780633ccfd60b1461030c57806340c10f191461032357806358e919581461034c57610179565b8063066635751461017e57806306fdde03146101a9578063095ea7b3146101d457806318160ddd1461021157806323b872dd1461023c57610179565b36610179577f88a5966d370b9919b20f3e2c13ff65706f196a4e32cc2c12bf57088f88525874333460405161016f9291906118e2565b60405180910390a1005b600080fd5b34801561018a57600080fd5b50610193610582565b6040516101a091906118c7565b60405180910390f35b3480156101b557600080fd5b506101be6105a8565b6040516101cb9190611926565b60405180910390f35b3480156101e057600080fd5b506101fb60048036038101906101f691906116db565b61063a565b604051610208919061190b565b60405180910390f35b34801561021d57600080fd5b50610226610658565b6040516102339190611a68565b60405180910390f35b34801561024857600080fd5b50610263600480360381019061025e919061168c565b610662565b604051610270919061190b565b60405180910390f35b34801561028557600080fd5b5061028e61071a565b60405161029b9190611a83565b60405180910390f35b3480156102b057600080fd5b506102b9610731565b6040516102c691906118c7565b60405180910390f35b3480156102db57600080fd5b506102f660048036038101906102f191906116db565b610757565b604051610303919061190b565b60405180910390f35b34801561031857600080fd5b50610321610803565b005b34801561032f57600080fd5b5061034a600480360381019061034591906116db565b610937565b005b34801561035857600080fd5b50610361610a2a565b60405161036e91906118c7565b60405180910390f35b34801561038357600080fd5b5061038c610a50565b60405161039991906118c7565b60405180910390f35b3480156103ae57600080fd5b506103c960048036038101906103c49190611627565b610a76565b6040516103d69190611a68565b60405180910390f35b3480156103eb57600080fd5b506103f4610abf565b005b34801561040257600080fd5b5061040b610c12565b60405161041891906118c7565b60405180910390f35b34801561042d57600080fd5b50610436610c3b565b6040516104439190611926565b60405180910390f35b34801561045857600080fd5b50610473600480360381019061046e91906116db565b610ccd565b604051610480919061190b565b60405180910390f35b34801561049557600080fd5b506104b060048036038101906104ab91906116db565b610d79565b6040516104bd919061190b565b60405180910390f35b3480156104d257600080fd5b506104db610d97565b6040516104e891906118c7565b60405180910390f35b3480156104fd57600080fd5b5061051860048036038101906105139190611650565b610dbd565b6040516105259190611a68565b60405180910390f35b34801561053a57600080fd5b5061055560048036038101906105509190611627565b610e44565b005b34801561056357600080fd5b5061056c611006565b60405161057991906118c7565b60405180910390f35b600660019054906101000a900473ffffffffffffffffffffffffffffffffffffffff1681565b6060600480546105b790611bcc565b80601f01602080910402602001604051908101604052809291908181526020018280546105e390611bcc565b80156106305780601f1061060557610100808354040283529160200191610630565b820191906000526020600020905b81548152906001019060200180831161061357829003601f168201915b5050505050905090565b600061064e61064761102c565b8484611034565b6001905092915050565b6000600354905090565b600061066f8484846111ff565b61070f8461067b61102c565b84600260008973ffffffffffffffffffffffffffffffffffffffff1673ffffffffffffffffffffffffffffffffffffffff16815260200190815260200160002060006106c561102c565b73ffffffffffffffffffffffffffffffffffffffff1673ffffffffffffffffffffffffffffffffffffffff1681526020019081526020016000205461070a9190611b10565b611034565b600190509392505050565b6000600660009054906101000a900460ff16905090565b600860009054906101000a900473ffffffffffffffffffffffffffffffffffffffff1681565b60006107f961076461102c565b84846002600061077261102c565b73ffffffffffffffffffffffffffffffffffffffff1673ffffffffffffffffffffffffffffffffffffffff16815260200190815260200160002060008873ffffffffffffffffffffffffffffffffffffffff1673ffffffffffffffffffffffffffffffffffffffff168152602001908152602001600020546107f49190611aba565b611034565b6001905092915050565b61080b61102c565b73ffffffffffffffffffffffffffffffffffffffff1660008054906101000a900473ffffffffffffffffffffffffffffffffffffffff1673ffffffffffffffffffffffffffffffffffffffff1614610898576040517f08c379a000000000000000000000000000000000000000000000000000000000815260040161088f906119e8565b60405180910390fd5b600047116108db576040517f08c379a00000000000000000000000000000000000000000000000000000000081526004016108d2906119c8565b60405180910390fd5b600047905080476108ec9190611b10565b503373ffffffffffffffffffffffffffffffffffffffff166108fc829081150290604051600060405180830381858888f19350505050158015610933573d6000803e3d6000fd5b5050565b61093f61102c565b73ffffffffffffffffffffffffffffffffffffffff1660008054906101000a900473ffffffffffffffffffffffffffffffffffffffff1673ffffffffffffffffffffffffffffffffffffffff16146109cc576040517f08c379a00000000000000000000000000000000000000000000000000000000081526004016109c3906119e8565b60405180910390fd5b600060149054906101000a900460ff1615610a1c576040517f08c379a0000000000000000000000000000000000000000000000000000000008152600401610a13906119a8565b60405180910390fd5b610a268282611470565b5050565b600760009054906101000a900473ffffffffffffffffffffffffffffffffffffffff1681565b600b60009054906101000a900473ffffffffffffffffffffffffffffffffffffffff1681565b6000600160008373ffffffffffffffffffffffffffffffffffffffff1673ffffffffffffffffffffffffffffffffffffffff168152602001908152602001600020549050919050565b610ac761102c565b73ffffffffffffffffffffffffffffffffffffffff1660008054906101000a900473ffffffffffffffffffffffffffffffffffffffff1673ffffffffffffffffffffffffffffffffffffffff1614610b54576040517f08c379a0000000000000000000000000000000000000000000000000000000008152600401610b4b906119e8565b60405180910390fd5b600073ffffffffffffffffffffffffffffffffffffffff1660008054906101000a900473ffffffffffffffffffffffffffffffffffffffff1673ffffffffffffffffffffffffffffffffffffffff167f8be0079c531659141344cd1fd0a4f28419497f9722a3daafe3b4186f6b6457e060405160405180910390a360008060006101000a81548173ffffffffffffffffffffffffffffffffffffffff021916908373ffffffffffffffffffffffffffffffffffffffff160217905550565b60008060009054906101000a900473ffffffffffffffffffffffffffffffffffffffff16905090565b606060058054610c4a90611bcc565b80601f0160208091040260200160405190810160405280929190818152602001828054610c7690611bcc565b8015610cc35780601f10610c9857610100808354040283529160200191610cc3565b820191906000526020600020905b815481529060010190602001808311610ca657829003601f168201915b5050505050905090565b6000610d6f610cda61102c565b848460026000610ce861102c565b73ffffffffffffffffffffffffffffffffffffffff1673ffffffffffffffffffffffffffffffffffffffff16815260200190815260200160002060008873ffffffffffffffffffffffffffffffffffffffff1673ffffffffffffffffffffffffffffffffffffffff16815260200190815260200160002054610d6a9190611b10565b611034565b6001905092915050565b6000610d8d610d8661102c565b84846111ff565b6001905092915050565b600a60009054906101000a900473ffffffffffffffffffffffffffffffffffffffff1681565b6000600260008473ffffffffffffffffffffffffffffffffffffffff1673ffffffffffffffffffffffffffffffffffffffff16815260200190815260200160002060008373ffffffffffffffffffffffffffffffffffffffff1673ffffffffffffffffffffffffffffffffffffffff16815260200190815260200160002054905092915050565b610e4c61102c565b73ffffffffffffffffffffffffffffffffffffffff1660008054906101000a900473ffffffffffffffffffffffffffffffffffffffff1673ffffffffffffffffffffffffffffffffffffffff1614610ed9576040517f08c379a0000000000000000000000000000000000000000000000000000000008152600401610ed0906119e8565b60405180910390fd5b600073ffffffffffffffffffffffffffffffffffffffff168173ffffffffffffffffffffffffffffffffffffffff161415610f49576040517f08c379a0000000000000000000000000000000000000000000000000000000008152600401610f4090611968565b60405180910390fd5b8073ffffffffffffffffffffffffffffffffffffffff1660008054906101000a900473ffffffffffffffffffffffffffffffffffffffff1673ffffffffffffffffffffffffffffffffffffffff167f8be0079c531659141344cd1fd0a4f28419497f9722a3daafe3b4186f6b6457e060405160405180910390a3806000806101000a81548173ffffffffffffffffffffffffffffffffffffffff021916908373ffffffffffffffffffffffffffffffffffffffff16021790555050565b600960009054906101000a900473ffffffffffffffffffffffffffffffffffffffff1681565b600033905090565b600073ffffffffffffffffffffffffffffffffffffffff168373ffffffffffffffffffffffffffffffffffffffff1614156110a4576040517f08c379a000000000000000000000000000000000000000000000000000000000815260040161109b90611988565b60405180910390fd5b600073ffffffffffffffffffffffffffffffffffffffff168273ffffffffffffffffffffffffffffffffffffffff161415611114576040517f08c379a000000000000000000000000000000000000000000000000000000000815260040161110b90611a48565b60405180910390fd5b80600260008573ffffffffffffffffffffffffffffffffffffffff1673ffffffffffffffffffffffffffffffffffffffff16815260200190815260200160002060008473ffffffffffffffffffffffffffffffffffffffff1673ffffffffffffffffffffffffffffffffffffffff168152602001908152602001600020819055508173ffffffffffffffffffffffffffffffffffffffff168373ffffffffffffffffffffffffffffffffffffffff167f8c5be1e5ebec7d5bd14f71427d1e84f3dd0314c0f7b2291e5b200ac8c7c3b925836040516111f29190611a68565b60405180910390a3505050565b600073ffffffffffffffffffffffffffffffffffffffff168373ffffffffffffffffffffffffffffffffffffffff16141561126f576040517f08c379a000000000000000000000000000000000000000000000000000000000815260040161126690611a28565b60405180910390fd5b600073ffffffffffffffffffffffffffffffffffffffff168273ffffffffffffffffffffffffffffffffffffffff1614156112df576040517f08c379a00000000000000000000000000000000000000000000000000000000081526004016112d690611948565b60405180910390fd5b6112ea8383836115f8565b80600160008573ffffffffffffffffffffffffffffffffffffffff1673ffffffffffffffffffffffffffffffffffffffff168152602001908152602001600020546113359190611b10565b600160008573ffffffffffffffffffffffffffffffffffffffff1673ffffffffffffffffffffffffffffffffffffffff1681526020019081526020016000208190555080600160008473ffffffffffffffffffffffffffffffffffffffff1673ffffffffffffffffffffffffffffffffffffffff168152602001908152602001600020546113c39190611aba565b600160008473ffffffffffffffffffffffffffffffffffffffff1673ffffffffffffffffffffffffffffffffffffffff168152602001908152602001600020819055508173ffffffffffffffffffffffffffffffffffffffff168373ffffffffffffffffffffffffffffffffffffffff167fddf252ad1be2c89b69c2b068fc378daa952ba7f163c4a11628f55a4df523b3ef836040516114639190611a68565b60405180910390a3505050565b600073ffffffffffffffffffffffffffffffffffffffff168273ffffffffffffffffffffffffffffffffffffffff1614156114e0576040517f08c379a00000000000000000000000000000000000000000000000000000000081526004016114d790611a08565b60405180910390fd5b6114ec600083836115f8565b806003546114fa9190611aba565b60038190555080600160008473ffffffffffffffffffffffffffffffffffffffff1673ffffffffffffffffffffffffffffffffffffffff1681526020019081526020016000205461154b9190611aba565b600160008473ffffffffffffffffffffffffffffffffffffffff1673ffffffffffffffffffffffffffffffffffffffff168152602001908152602001600020819055508173ffffffffffffffffffffffffffffffffffffffff16600073ffffffffffffffffffffffffffffffffffffffff167fddf252ad1be2c89b69c2b068fc378daa952ba7f163c4a11628f55a4df523b3ef836040516115ec9190611a68565b60405180910390a35050565b505050565b60008135905061160c81611ec2565b92915050565b60008135905061162181611ed9565b92915050565b60006020828403121561163957600080fd5b6000611647848285016115fd565b91505092915050565b6000806040838503121561166357600080fd5b6000611671858286016115fd565b9250506020611682858286016115fd565b9150509250929050565b6000806000606084860312156116a157600080fd5b60006116af868287016115fd565b93505060206116c0868287016115fd565b92505060406116d186828701611612565b9150509250925092565b600080604083850312156116ee57600080fd5b60006116fc858286016115fd565b925050602061170d85828601611612565b9150509250929050565b61172081611b44565b82525050565b61172f81611b56565b82525050565b600061174082611a9e565b61174a8185611aa9565b935061175a818560208601611b99565b61176381611c5c565b840191505092915050565b600061177b602983611aa9565b915061178682611c6d565b604082019050919050565b600061179e601e83611aa9565b91506117a982611cbc565b602082019050919050565b60006117c1602a83611aa9565b91506117cc82611ce5565b604082019050919050565b60006117e4602383611aa9565b91506117ef82611d34565b604082019050919050565b6000611807601283611aa9565b915061181282611d83565b602082019050919050565b600061182a601c83611aa9565b915061183582611dac565b602082019050919050565b600061184d602583611aa9565b915061185882611dd5565b604082019050919050565b6000611870602b83611aa9565b915061187b82611e24565b604082019050919050565b6000611893602883611aa9565b915061189e82611e73565b604082019050919050565b6118b281611b82565b82525050565b6118c181611b8c565b82525050565b60006020820190506118dc6000830184611717565b92915050565b60006040820190506118f76000830185611717565b61190460208301846118a9565b9392505050565b60006020820190506119206000830184611726565b92915050565b600060208201905081810360008301526119408184611735565b905092915050565b600060208201905081810360008301526119618161176e565b9050919050565b6000602082019050818103600083015261198181611791565b9050919050565b600060208201905081810360008301526119a1816117b4565b9050919050565b600060208201905081810360008301526119c1816117d7565b9050919050565b600060208201905081810360008301526119e1816117fa565b9050919050565b60006020820190508181036000830152611a018161181d565b9050919050565b60006020820190508181036000830152611a2181611840565b9050919050565b60006020820190508181036000830152611a4181611863565b9050919050565b60006020820190508181036000830152611a6181611886565b9050919050565b6000602082019050611a7d60008301846118a9565b92915050565b6000602082019050611a9860008301846118b8565b92915050565b600081519050919050565b600082825260208201905092915050565b6000611ac582611b82565b9150611ad083611b82565b9250827fffffffffffffffffffffffffffffffffffffffffffffffffffffffffffffffff03821115611b0557611b04611bfe565b5b828201905092915050565b6000611b1b82611b82565b9150611b2683611b82565b925082821015611b3957611b38611bfe565b5b828203905092915050565b6000611b4f82611b62565b9050919050565b60008115159050919050565b600073ffffffffffffffffffffffffffffffffffffffff82169050919050565b6000819050919050565b600060ff82169050919050565b60005b83811015611bb7578082015181840152602081019050611b9c565b83811115611bc6576000848401525b50505050565b60006002820490506001821680611be457607f821691505b60208210811415611bf857611bf7611c2d565b5b50919050565b7f4e487b7100000000000000000000000000000000000000000000000000000000600052601160045260246000fd5b7f4e487b7100000000000000000000000000000000000000000000000000000000600052602260045260246000fd5b6000601f19601f8301169050919050565b7f5472616e7366657220746f20746865207a65726f2061646472657373206e6f7460008201527f20616c6c6f7765642e0000000000000000000000000000000000000000000000602082015250565b7f4e6577206f776e657220697320746865207a65726f20616464726573732e0000600082015250565b7f417070726f76652066726f6d20746865207a65726f2061646472657373206e6f60008201527f7420616c6c6f7765642e00000000000000000000000000000000000000000000602082015250565b7f4372656174696e67206e657720746f6b656e73206973206e6f7420616c6c6f7760008201527f65642e0000000000000000000000000000000000000000000000000000000000602082015250565b7f496e737566696369656e742066756e6473210000000000000000000000000000600082015250565b7f5468652063616c6c6572206973206e6f7420746865206f776e65722e00000000600082015250565b7f4d696e7420746f20746865207a65726f2061646472657373206e6f7420616c6c60008201527f6f7765642e000000000000000000000000000000000000000000000000000000602082015250565b7f5472616e736665722066726f6d20746865207a65726f2061646472657373206e60008201527f6f7420616c6c6f7765642e000000000000000000000000000000000000000000602082015250565b7f417070726f766520746f20746865207a65726f2061646472657373206e6f742060008201527f616c6c6f7765642e000000000000000000000000000000000000000000000000602082015250565b611ecb81611b44565b8114611ed657600080fd5b50565b611ee281611b82565b8114611eed57600080fd5b5056fea26469706673582212208130936d45b780db2cb397da96aa6555c2a4fc7cf769c3b6196e7d0bf315c66f64736f6c63430008030033",
  "immutableReferences": {},
  "source": "// SPDX-License-Identifier: GPL-3.0\npragma solidity >=0.8.0 <0.9.0;\n\nimport \"./ERC20.sol\";\nimport \"./utils/Ownable.sol\";\n\ncontract CoinvestingDeFiToken is Ownable, ERC20 {\n    // Public variables    \n    address public devCommunityReserve;\n    address public ecosystemGrantsReserve;\n    address public foundersAccount1;\n    address public foundersAccount2;\n    address public RewardsAndBonusLPReserve;\n    address public saleReserve;\n\n    // Events\n    event Received(address, uint);\n    \n    // Constructor\n    constructor (\n        string memory name,\n        string memory symbol,\n        uint _initialSupply,\n        address _devCommunityReserve,\n        address _ecosystemGrantsReserve,        \n        address _foundersAccount1,\n        address _foundersAccount2,\n        address _RewardsAndBonusLPReserve,\n        address _saleReserve            \n    ) payable ERC20 (name, symbol) {\n        devCommunityReserve = _devCommunityReserve;\n        ecosystemGrantsReserve = _ecosystemGrantsReserve;\n        foundersAccount1 = _foundersAccount1;\n        foundersAccount2 = _foundersAccount2;\n        saleReserve = _saleReserve;\n        RewardsAndBonusLPReserve = _RewardsAndBonusLPReserve;        \n\n        if (_initialSupply > 0) {\n            require((_initialSupply % 10) == 0, \"_initialSupply has to be a multiple of 10!\");\n            uint fortyFivePerCent = _initialSupply * (45) / (100);\n            uint twentyTwoCent = _initialSupply * (22) / (100);\n            uint fifteenPerCent = _initialSupply * (15) / (100);\n            uint eightPerCent = _initialSupply * (8) / (100); \n            uint fivePerCent = _initialSupply * (5) / (100);          \n            \n            mint(devCommunityReserve, eightPerCent);\n\n            mint(ecosystemGrantsReserve, twentyTwoCent);\n\n            mint(foundersAccount1, fivePerCent);\n\n            mint(foundersAccount2, fivePerCent);\n\n            mint(RewardsAndBonusLPReserve, fortyFivePerCent);\n\n            mint(saleReserve, fifteenPerCent);   \n       \n            mintingFinished = true;\n        }\n    }\n\n    // Receive function \n    receive() external payable {\n        emit Received(msg.sender, msg.value);\n    }\n\n    // External functions\n    function withdraw() external onlyOwner {\n        require(address(this).balance > 0, \"Insuficient funds!\");\n        uint amount = address(this).balance;\n        // sending to prevent re-entrancy attacks\n        address(this).balance - amount;\n        payable(msg.sender).transfer(amount);\n    }\n    \n    // Public functions\n    function mint(address account, uint amount) public onlyOwner canMint {\n        _mint(account, amount);\n    }\n}\n",
  "sourcePath": "/home/dev/Playground/coinvesting-core-ropsten/contracts/CoinvestingDeFiToken.sol",
  "compiler": {
    "name": "solc",
    "version": "0.8.3+commit.8d00100c.Emscripten.clang"
  },
  "schemaVersion": "3.3.4",
  "updatedAt": "2021-04-10T07:26:55.512Z",
  "networkType": "ethereum",
  "devdoc": {
    "kind": "dev",
    "methods": {
      "allowance(address,address)": {
        "details": "See {IERC20-allowance}."
      },
      "approve(address,uint256)": {
        "details": "See {IERC20-approve}. Requirements: - `spender` cannot be the zero address."
      },
      "balanceOf(address)": {
        "details": "See {IERC20-balanceOf}."
      },
      "decimals()": {
        "details": "Returns the number of decimals used to get its user representation. For example, if `decimals` equals `2`, a balance of `505` tokens should be displayed to a user as `5,05` (`505 / 10 ** 2`). Tokens usually opt for a value of 18, imitating the relationship between Ether and Wei. This is the value {ERC20} uses, unless {_setupDecimals} is called. NOTE: This information is only used for _display_ purposes: it in no way affects any of the arithmetic of the contract, including {IERC20-balanceOf} and {IERC20-transfer}."
      },
      "decreaseAllowance(address,uint256)": {
        "details": "Atomically decreases the allowance granted to `spender` by the caller. This is an alternative to {approve} that can be used as a mitigation for problems described in {IERC20-approve}. Emits an {Approval} event indicating the updated allowance. Requirements: - `spender` cannot be the zero address. - `spender` must have allowance for the caller of at least `subtractedValue`."
      },
      "increaseAllowance(address,uint256)": {
        "details": "Atomically increases the allowance granted to `spender` by the caller. This is an alternative to {approve} that can be used as a mitigation for problems described in {IERC20-approve}. Emits an {Approval} event indicating the updated allowance. Requirements: - `spender` cannot be the zero address."
      },
      "name()": {
        "details": "Returns the name of the token."
      },
      "owner()": {
        "details": "Returns the address of the current owner."
      },
      "renounceOwnership()": {
        "details": "Leaves the contract without owner. It will not be possible to call `onlyOwner` functions anymore. Can only be called by the current owner. NOTE: Renouncing ownership will leave the contract without an owner, thereby removing any functionality that is only available to the owner."
      },
      "symbol()": {
        "details": "Returns the symbol of the token, usually a shorter version of the name."
      },
      "totalSupply()": {
        "details": "See {IERC20-totalSupply}."
      },
      "transfer(address,uint256)": {
        "details": "See {IERC20-transfer}. Requirements: - `recipient` cannot be the zero address. - the caller must have a balance of at least `amount`."
      },
      "transferFrom(address,address,uint256)": {
        "details": "See {IERC20-transferFrom}. Emits an {Approval} event indicating the updated allowance. This is not required by the EIP. See the note at the beginning of {ERC20}. Requirements: - `sender` and `recipient` cannot be the zero address. - `sender` must have a balance of at least `amount`. - the caller must have allowance for ``sender``'s tokens of at least `amount`."
      },
      "transferOwnership(address)": {
        "details": "Transfers ownership of the contract to a new account (`newOwner`). Can only be called by the current owner."
      }
    },
    "version": 1
  },
  "userdoc": {
    "kind": "user",
    "methods": {},
    "version": 1
  }
}