{
  "contractName": "MultiSigWallet",
  "abi": [
    {
      "inputs": [],
      "stateMutability": "payable",
      "type": "constructor",
      "payable": true
    },
    {
      "anonymous": false,
      "inputs": [
        {
          "indexed": false,
          "internalType": "address",
          "name": "from",
          "type": "address"
        },
        {
          "indexed": false,
          "internalType": "uint256",
          "name": "amount",
          "type": "uint256"
        }
      ],
      "name": "FundsDeposited",
      "type": "event"
    },
    {
      "anonymous": false,
      "inputs": [
        {
          "indexed": false,
          "internalType": "address",
          "name": "newOwner",
          "type": "address"
        }
      ],
      "name": "NewOwnerAdded",
      "type": "event"
    },
    {
      "anonymous": false,
      "inputs": [
        {
          "indexed": true,
          "internalType": "address",
          "name": "previousOwner",
          "type": "address"
        },
        {
          "indexed": true,
          "internalType": "address",
          "name": "newOwner",
          "type": "address"
        }
      ],
      "name": "OwnershipTransferred",
      "type": "event"
    },
    {
      "anonymous": false,
      "inputs": [
        {
          "indexed": false,
          "internalType": "uint256",
          "name": "transactionId",
          "type": "uint256"
        },
        {
          "indexed": false,
          "internalType": "address",
          "name": "to",
          "type": "address"
        },
        {
          "indexed": false,
          "internalType": "uint256",
          "name": "amount",
          "type": "uint256"
        },
        {
          "indexed": false,
          "internalType": "address",
          "name": "createdBy",
          "type": "address"
        },
        {
          "indexed": false,
          "internalType": "address",
          "name": "executedBy",
          "type": "address"
        }
      ],
      "name": "TransactionCompleted",
      "type": "event"
    },
    {
      "anonymous": false,
      "inputs": [
        {
          "indexed": false,
          "internalType": "uint256",
          "name": "nextTransactionId",
          "type": "uint256"
        },
        {
          "indexed": false,
          "internalType": "address",
          "name": "createdBy",
          "type": "address"
        },
        {
          "indexed": false,
          "internalType": "address",
          "name": "to",
          "type": "address"
        },
        {
          "indexed": false,
          "internalType": "uint256",
          "name": "amount",
          "type": "uint256"
        }
      ],
      "name": "TransactionCreated",
      "type": "event"
    },
    {
      "anonymous": false,
      "inputs": [
        {
          "indexed": false,
          "internalType": "uint256",
          "name": "transactionId",
          "type": "uint256"
        },
        {
          "indexed": false,
          "internalType": "address",
          "name": "signer",
          "type": "address"
        }
      ],
      "name": "TransactionSigned",
      "type": "event"
    },
    {
      "inputs": [],
      "name": "owner",
      "outputs": [
        {
          "internalType": "address",
          "name": "",
          "type": "address"
        }
      ],
      "stateMutability": "view",
      "type": "function",
      "constant": true
    },
    {
      "inputs": [],
      "name": "quorum",
      "outputs": [
        {
          "internalType": "uint256",
          "name": "",
          "type": "uint256"
        }
      ],
      "stateMutability": "view",
      "type": "function",
      "constant": true
    },
    {
      "inputs": [],
      "name": "renounceOwnership",
      "outputs": [],
      "stateMutability": "nonpayable",
      "type": "function"
    },
    {
      "inputs": [],
      "name": "tokenContract",
      "outputs": [
        {
          "internalType": "contract CoinvestingDeFiToken",
          "name": "",
          "type": "address"
        }
      ],
      "stateMutability": "view",
      "type": "function",
      "constant": true
    },
    {
      "inputs": [
        {
          "internalType": "address",
          "name": "newOwner",
          "type": "address"
        }
      ],
      "name": "transferOwnership",
      "outputs": [],
      "stateMutability": "nonpayable",
      "type": "function"
    },
    {
      "stateMutability": "payable",
      "type": "receive",
      "payable": true
    },
    {
      "inputs": [
        {
          "internalType": "address",
          "name": "addr",
          "type": "address"
        }
      ],
      "name": "activateOwner",
      "outputs": [],
      "stateMutability": "nonpayable",
      "type": "function"
    },
    {
      "inputs": [
        {
          "internalType": "address",
          "name": "newOwner",
          "type": "address"
        }
      ],
      "name": "addOwner",
      "outputs": [],
      "stateMutability": "nonpayable",
      "type": "function"
    },
    {
      "inputs": [
        {
          "internalType": "uint256",
          "name": "amount",
          "type": "uint256"
        },
        {
          "internalType": "address payable",
          "name": "to",
          "type": "address"
        }
      ],
      "name": "createTransfer",
      "outputs": [],
      "stateMutability": "nonpayable",
      "type": "function"
    },
    {
      "inputs": [
        {
          "internalType": "address",
          "name": "addr",
          "type": "address"
        }
      ],
      "name": "deactivateOwner",
      "outputs": [],
      "stateMutability": "nonpayable",
      "type": "function"
    },
    {
      "inputs": [
        {
          "internalType": "uint256",
          "name": "id",
          "type": "uint256"
        }
      ],
      "name": "executeTransaction",
      "outputs": [],
      "stateMutability": "nonpayable",
      "type": "function"
    },
    {
      "inputs": [
        {
          "internalType": "contract CoinvestingDeFiToken",
          "name": "_tokenContract",
          "type": "address"
        }
      ],
      "name": "setTokenContract",
      "outputs": [],
      "stateMutability": "nonpayable",
      "type": "function"
    },
    {
      "inputs": [
        {
          "internalType": "uint256",
          "name": "id",
          "type": "uint256"
        }
      ],
      "name": "signTransation",
      "outputs": [],
      "stateMutability": "nonpayable",
      "type": "function"
    },
    {
      "inputs": [],
      "name": "withdraw",
      "outputs": [],
      "stateMutability": "nonpayable",
      "type": "function"
    },
    {
      "inputs": [],
      "name": "getBalance",
      "outputs": [
        {
          "internalType": "uint256",
          "name": "",
          "type": "uint256"
        }
      ],
      "stateMutability": "view",
      "type": "function",
      "constant": true
    },
    {
      "inputs": [],
      "name": "getPendingTransactions",
      "outputs": [
        {
          "internalType": "uint256[]",
          "name": "",
          "type": "uint256[]"
        }
      ],
      "stateMutability": "view",
      "type": "function",
      "constant": true
    },
    {
      "inputs": [],
      "name": "getTokenBalance",
      "outputs": [
        {
          "internalType": "uint256",
          "name": "",
          "type": "uint256"
        }
      ],
      "stateMutability": "view",
      "type": "function",
      "constant": true
    },
    {
      "inputs": [
        {
          "internalType": "uint256",
          "name": "transactionId",
          "type": "uint256"
        }
      ],
      "name": "getTransactionSignatureCount",
      "outputs": [
        {
          "internalType": "uint256",
          "name": "",
          "type": "uint256"
        }
      ],
      "stateMutability": "view",
      "type": "function",
      "constant": true
    }
  ],
  "bytecode": "0x60806040526000600160146101000a81548160ff021916908315150217905550600061002f6101a160201b60201c565b9050806000806101000a81548173ffffffffffffffffffffffffffffffffffffffff021916908373ffffffffffffffffffffffffffffffffffffffff1602179055508073ffffffffffffffffffffffffffffffffffffffff16600073ffffffffffffffffffffffffffffffffffffffff167f8be0079c531659141344cd1fd0a4f28419497f9722a3daafe3b4186f6b6457e060405160405180910390a35033600460006101000a81548173ffffffffffffffffffffffffffffffffffffffff021916908373ffffffffffffffffffffffffffffffffffffffff1602179055506001600560003373ffffffffffffffffffffffffffffffffffffffff1673ffffffffffffffffffffffffffffffffffffffff16815260200190815260200160002060006101000a81548160ff02191690836002811115610197577f4e487b7100000000000000000000000000000000000000000000000000000000600052602160045260246000fd5b02179055506101a9565b600033905090565b612a73806101b86000396000f3fe6080604052600436106101025760003560e01c8063715018a611610095578063bbcd5bbe11610064578063bbcd5bbe1461032d578063d11db83f14610356578063e8b7d43014610381578063ee22610b146103aa578063f2fde38b146103d357610142565b8063715018a61461029757806382b2e257146102ae5780638da5cb5b146102d95780639187f65e1461030457610142565b8063459a3f78116100d1578063459a3f78146101dd5780634c12fa471461021a57806355a373d6146102435780637065cb481461026e57610142565b8063026eb9f21461014757806312065fe0146101705780631703a0181461019b5780633ccfd60b146101c657610142565b36610142577f543ba50a5eec5e6178218e364b1d0f396157b3c8fa278522c2cb7fd99407d4743334604051610138929190612233565b60405180910390a1005b600080fd5b34801561015357600080fd5b5061016e60048036038101906101699190611e5e565b6103fc565b005b34801561017c57600080fd5b50610185610592565b6040516101929190612439565b60405180910390f35b3480156101a757600080fd5b506101b061059a565b6040516101bd9190612439565b60405180910390f35b3480156101d257600080fd5b506101db61059f565b005b3480156101e957600080fd5b5061020460048036038101906101ff9190611ed9565b6106d3565b6040516102119190612439565b60405180910390f35b34801561022657600080fd5b50610241600480360381019061023c9190611f2b565b610798565b005b34801561024f57600080fd5b50610258610ae5565b604051610265919061227e565b60405180910390f35b34801561027a57600080fd5b5061029560048036038101906102909190611e5e565b610b0b565b005b3480156102a357600080fd5b506102ac610dd7565b005b3480156102ba57600080fd5b506102c3610f2a565b6040516102d09190612439565b60405180910390f35b3480156102e557600080fd5b506102ee610fdc565b6040516102fb91906121ef565b60405180910390f35b34801561031057600080fd5b5061032b60048036038101906103269190611e5e565b611005565b005b34801561033957600080fd5b50610354600480360381019061034f9190611eb0565b61119b565b005b34801561036257600080fd5b5061036b6112de565b604051610378919061225c565b60405180910390f35b34801561038d57600080fd5b506103a860048036038101906103a39190611ed9565b611336565b005b3480156103b657600080fd5b506103d160048036038101906103cc9190611ed9565b6116fb565b005b3480156103df57600080fd5b506103fa60048036038101906103f59190611e5e565b611c16565b005b610404611dd8565b73ffffffffffffffffffffffffffffffffffffffff1660008054906101000a900473ffffffffffffffffffffffffffffffffffffffff1673ffffffffffffffffffffffffffffffffffffffff1614610491576040517f08c379a0000000000000000000000000000000000000000000000000000000008152600401610488906123f9565b60405180910390fd5b600073ffffffffffffffffffffffffffffffffffffffff168173ffffffffffffffffffffffffffffffffffffffff161415610501576040517f08c379a00000000000000000000000000000000000000000000000000000000081526004016104f890612399565b60405180910390fd5b6002600560008373ffffffffffffffffffffffffffffffffffffffff1673ffffffffffffffffffffffffffffffffffffffff16815260200190815260200160002060006101000a81548160ff0219169083600281111561058a577f4e487b7100000000000000000000000000000000000000000000000000000000600052602160045260246000fd5b021790555050565b600047905090565b600281565b6105a7611dd8565b73ffffffffffffffffffffffffffffffffffffffff1660008054906101000a900473ffffffffffffffffffffffffffffffffffffffff1673ffffffffffffffffffffffffffffffffffffffff1614610634576040517f08c379a000000000000000000000000000000000000000000000000000000000815260040161062b906123f9565b60405180910390fd5b60004711610677576040517f08c379a000000000000000000000000000000000000000000000000000000000815260040161066e906123b9565b60405180910390fd5b60004790508047610688919061255f565b503373ffffffffffffffffffffffffffffffffffffffff166108fc829081150290604051600060405180830381858888f193505050501580156106cf573d6000803e3d6000fd5b5050565b60008073ffffffffffffffffffffffffffffffffffffffff166006600084815260200190815260200160002060020160009054906101000a900473ffffffffffffffffffffffffffffffffffffffff1673ffffffffffffffffffffffffffffffffffffffff16141561077a576040517f08c379a0000000000000000000000000000000000000000000000000000000008152600401610771906122d9565b60405180910390fd5b60066000838152602001908152602001600020600501549050919050565b600160028111156107d2577f4e487b7100000000000000000000000000000000000000000000000000000000600052602160045260246000fd5b600560003373ffffffffffffffffffffffffffffffffffffffff1673ffffffffffffffffffffffffffffffffffffffff16815260200190815260200160002060009054906101000a900460ff166002811115610857577f4e487b7100000000000000000000000000000000000000000000000000000000600052602160045260246000fd5b14610897576040517f08c379a000000000000000000000000000000000000000000000000000000000815260040161088e906122b9565b60405180910390fd5b600260008154809291906108aa90612659565b91905055506040518060e0016040528060025481526020018381526020018273ffffffffffffffffffffffffffffffffffffffff168152602001600160009054906101000a900473ffffffffffffffffffffffffffffffffffffffff1673ffffffffffffffffffffffffffffffffffffffff1681526020013373ffffffffffffffffffffffffffffffffffffffff1681526020016000815260200160001515815250600660006002548152602001908152602001600020600082015181600001556020820151816001015560408201518160020160006101000a81548173ffffffffffffffffffffffffffffffffffffffff021916908373ffffffffffffffffffffffffffffffffffffffff16021790555060608201518160030160006101000a81548173ffffffffffffffffffffffffffffffffffffffff021916908373ffffffffffffffffffffffffffffffffffffffff16021790555060808201518160040160006101000a81548173ffffffffffffffffffffffffffffffffffffffff021916908373ffffffffffffffffffffffffffffffffffffffff16021790555060a0820151816005015560c08201518160060160006101000a81548160ff021916908315150217905550905050600360025490806001815401808255809150506001900390600052602060002001600090919091909150557fe9097a4f4eddc0e5906640fcd9e1193c9db52771536ca4c8b06ab4c40aa045d2600254338385604051610ad994939291906124d0565b60405180910390a15050565b600160009054906101000a900473ffffffffffffffffffffffffffffffffffffffff1681565b610b13611dd8565b73ffffffffffffffffffffffffffffffffffffffff1660008054906101000a900473ffffffffffffffffffffffffffffffffffffffff1673ffffffffffffffffffffffffffffffffffffffff1614610ba0576040517f08c379a0000000000000000000000000000000000000000000000000000000008152600401610b97906123f9565b60405180910390fd5b600073ffffffffffffffffffffffffffffffffffffffff168173ffffffffffffffffffffffffffffffffffffffff161415610c10576040517f08c379a0000000000000000000000000000000000000000000000000000000008152600401610c0790612399565b60405180910390fd5b60006002811115610c4a577f4e487b7100000000000000000000000000000000000000000000000000000000600052602160045260246000fd5b600560008373ffffffffffffffffffffffffffffffffffffffff1673ffffffffffffffffffffffffffffffffffffffff16815260200190815260200160002060009054906101000a900460ff166002811115610ccf577f4e487b7100000000000000000000000000000000000000000000000000000000600052602160045260246000fd5b14610d0f576040517f08c379a0000000000000000000000000000000000000000000000000000000008152600401610d0690612319565b60405180910390fd5b6001600560008373ffffffffffffffffffffffffffffffffffffffff1673ffffffffffffffffffffffffffffffffffffffff16815260200190815260200160002060006101000a81548160ff02191690836002811115610d98577f4e487b7100000000000000000000000000000000000000000000000000000000600052602160045260246000fd5b02179055507f6e4e2a7c0e1576d48aeabd633d094f622d4f046286fec8b9045dd7f5c9fb087d81604051610dcc91906121ef565b60405180910390a150565b610ddf611dd8565b73ffffffffffffffffffffffffffffffffffffffff1660008054906101000a900473ffffffffffffffffffffffffffffffffffffffff1673ffffffffffffffffffffffffffffffffffffffff1614610e6c576040517f08c379a0000000000000000000000000000000000000000000000000000000008152600401610e63906123f9565b60405180910390fd5b600073ffffffffffffffffffffffffffffffffffffffff1660008054906101000a900473ffffffffffffffffffffffffffffffffffffffff1673ffffffffffffffffffffffffffffffffffffffff167f8be0079c531659141344cd1fd0a4f28419497f9722a3daafe3b4186f6b6457e060405160405180910390a360008060006101000a81548173ffffffffffffffffffffffffffffffffffffffff021916908373ffffffffffffffffffffffffffffffffffffffff160217905550565b6000600160009054906101000a900473ffffffffffffffffffffffffffffffffffffffff1673ffffffffffffffffffffffffffffffffffffffff166370a08231306040518263ffffffff1660e01b8152600401610f8791906121ef565b60206040518083038186803b158015610f9f57600080fd5b505afa158015610fb3573d6000803e3d6000fd5b505050506040513d601f19601f82011682018060405250810190610fd79190611f02565b905090565b60008060009054906101000a900473ffffffffffffffffffffffffffffffffffffffff16905090565b61100d611dd8565b73ffffffffffffffffffffffffffffffffffffffff1660008054906101000a900473ffffffffffffffffffffffffffffffffffffffff1673ffffffffffffffffffffffffffffffffffffffff161461109a576040517f08c379a0000000000000000000000000000000000000000000000000000000008152600401611091906123f9565b60405180910390fd5b600073ffffffffffffffffffffffffffffffffffffffff168173ffffffffffffffffffffffffffffffffffffffff16141561110a576040517f08c379a000000000000000000000000000000000000000000000000000000000815260040161110190612399565b60405180910390fd5b6001600560008373ffffffffffffffffffffffffffffffffffffffff1673ffffffffffffffffffffffffffffffffffffffff16815260200190815260200160002060006101000a81548160ff02191690836002811115611193577f4e487b7100000000000000000000000000000000000000000000000000000000600052602160045260246000fd5b021790555050565b6111a3611dd8565b73ffffffffffffffffffffffffffffffffffffffff1660008054906101000a900473ffffffffffffffffffffffffffffffffffffffff1673ffffffffffffffffffffffffffffffffffffffff1614611230576040517f08c379a0000000000000000000000000000000000000000000000000000000008152600401611227906123f9565b60405180910390fd5b600160149054906101000a900460ff1615611280576040517f08c379a000000000000000000000000000000000000000000000000000000000815260040161127790612359565b60405180910390fd5b80600160006101000a81548173ffffffffffffffffffffffffffffffffffffffff021916908373ffffffffffffffffffffffffffffffffffffffff16021790555060018060146101000a81548160ff02191690831515021790555050565b6060600380548060200260200160405190810160405280929190818152602001828054801561132c57602002820191906000526020600020905b815481526020019060010190808311611318575b5050505050905090565b60016002811115611370577f4e487b7100000000000000000000000000000000000000000000000000000000600052602160045260246000fd5b600560003373ffffffffffffffffffffffffffffffffffffffff1673ffffffffffffffffffffffffffffffffffffffff16815260200190815260200160002060009054906101000a900460ff1660028111156113f5577f4e487b7100000000000000000000000000000000000000000000000000000000600052602160045260246000fd5b14611435576040517f08c379a000000000000000000000000000000000000000000000000000000000815260040161142c906122b9565b60405180910390fd5b600073ffffffffffffffffffffffffffffffffffffffff166006600083815260200190815260200160002060020160009054906101000a900473ffffffffffffffffffffffffffffffffffffffff1673ffffffffffffffffffffffffffffffffffffffff1614156114db576040517f08c379a00000000000000000000000000000000000000000000000000000000081526004016114d2906122d9565b60405180910390fd5b3373ffffffffffffffffffffffffffffffffffffffff166006600083815260200190815260200160002060040160009054906101000a900473ffffffffffffffffffffffffffffffffffffffff1673ffffffffffffffffffffffffffffffffffffffff161415611580576040517f08c379a000000000000000000000000000000000000000000000000000000000815260040161157790612339565b60405180910390fd5b600015156007600083815260200190815260200160002060003373ffffffffffffffffffffffffffffffffffffffff1673ffffffffffffffffffffffffffffffffffffffff16815260200190815260200160002060009054906101000a900460ff16151514611624576040517f08c379a000000000000000000000000000000000000000000000000000000000815260040161161b90612379565b60405180910390fd5b600060066000838152602001908152602001600020905060016007600084815260200190815260200160002060003373ffffffffffffffffffffffffffffffffffffffff1673ffffffffffffffffffffffffffffffffffffffff16815260200190815260200160002060006101000a81548160ff0219169083151502179055508060050160008154809291906116b990612659565b91905055507f737f6609fa194738ed162051f994c6e9599a830846ea9d72d6501d79871e098182336040516116ef929190612454565b60405180910390a15050565b60016002811115611735577f4e487b7100000000000000000000000000000000000000000000000000000000600052602160045260246000fd5b600560003373ffffffffffffffffffffffffffffffffffffffff1673ffffffffffffffffffffffffffffffffffffffff16815260200190815260200160002060009054906101000a900460ff1660028111156117ba577f4e487b7100000000000000000000000000000000000000000000000000000000600052602160045260246000fd5b146117fa576040517f08c379a00000000000000000000000000000000000000000000000000000000081526004016117f1906122b9565b60405180910390fd5b600073ffffffffffffffffffffffffffffffffffffffff166006600083815260200190815260200160002060020160009054906101000a900473ffffffffffffffffffffffffffffffffffffffff1673ffffffffffffffffffffffffffffffffffffffff1614156118a0576040517f08c379a0000000000000000000000000000000000000000000000000000000008152600401611897906122d9565b60405180910390fd5b600015156006600083815260200190815260200160002060060160009054906101000a900460ff1615151461190a576040517f08c379a000000000000000000000000000000000000000000000000000000000815260040161190190612419565b60405180910390fd5b600260066000838152602001908152602001600020600501541015611964576040517f08c379a000000000000000000000000000000000000000000000000000000000815260040161195b906123d9565b60405180910390fd5b6006600082815260200190815260200160002060010154600160009054906101000a900473ffffffffffffffffffffffffffffffffffffffff1673ffffffffffffffffffffffffffffffffffffffff166370a08231306040518263ffffffff1660e01b81526004016119d691906121ef565b60206040518083038186803b1580156119ee57600080fd5b505afa158015611a02573d6000803e3d6000fd5b505050506040513d601f19601f82011682018060405250810190611a269190611f02565b1015611a67576040517f08c379a0000000000000000000000000000000000000000000000000000000008152600401611a5e906122f9565b60405180910390fd5b60016006600083815260200190815260200160002060060160006101000a81548160ff02191690831515021790555060006006600083815260200190815260200160002060020160009054906101000a900473ffffffffffffffffffffffffffffffffffffffff169050600060066000848152602001908152602001600020600101549050600160009054906101000a900473ffffffffffffffffffffffffffffffffffffffff1673ffffffffffffffffffffffffffffffffffffffff1663a9059cbb83836040518363ffffffff1660e01b8152600401611b4992919061220a565b602060405180830381600087803b158015611b6357600080fd5b505af1158015611b77573d6000803e3d6000fd5b505050506040513d601f19601f82011682018060405250810190611b9b9190611e87565b507f619ec1be2a054aa3b93eabd8626ae2b2539841a9572c4e1a93ab2227ed508c678383836006600088815260200190815260200160002060040160009054906101000a900473ffffffffffffffffffffffffffffffffffffffff1633604051611c0995949392919061247d565b60405180910390a1505050565b611c1e611dd8565b73ffffffffffffffffffffffffffffffffffffffff1660008054906101000a900473ffffffffffffffffffffffffffffffffffffffff1673ffffffffffffffffffffffffffffffffffffffff1614611cab576040517f08c379a0000000000000000000000000000000000000000000000000000000008152600401611ca2906123f9565b60405180910390fd5b600073ffffffffffffffffffffffffffffffffffffffff168173ffffffffffffffffffffffffffffffffffffffff161415611d1b576040517f08c379a0000000000000000000000000000000000000000000000000000000008152600401611d1290612299565b60405180910390fd5b8073ffffffffffffffffffffffffffffffffffffffff1660008054906101000a900473ffffffffffffffffffffffffffffffffffffffff1673ffffffffffffffffffffffffffffffffffffffff167f8be0079c531659141344cd1fd0a4f28419497f9722a3daafe3b4186f6b6457e060405160405180910390a3806000806101000a81548173ffffffffffffffffffffffffffffffffffffffff021916908373ffffffffffffffffffffffffffffffffffffffff16021790555050565b600033905090565b600081359050611def816129ca565b92915050565b600081359050611e04816129e1565b92915050565b600081519050611e19816129f8565b92915050565b600081359050611e2e81612a0f565b92915050565b600081359050611e4381612a26565b92915050565b600081519050611e5881612a26565b92915050565b600060208284031215611e7057600080fd5b6000611e7e84828501611de0565b91505092915050565b600060208284031215611e9957600080fd5b6000611ea784828501611e0a565b91505092915050565b600060208284031215611ec257600080fd5b6000611ed084828501611e1f565b91505092915050565b600060208284031215611eeb57600080fd5b6000611ef984828501611e34565b91505092915050565b600060208284031215611f1457600080fd5b6000611f2284828501611e49565b91505092915050565b60008060408385031215611f3e57600080fd5b6000611f4c85828601611e34565b9250506020611f5d85828601611df5565b9150509250929050565b6000611f7383836121d1565b60208301905092915050565b611f88816125ff565b82525050565b611f9781612593565b82525050565b6000611fa882612525565b611fb2818561253d565b9350611fbd83612515565b8060005b83811015611fee578151611fd58882611f67565b9750611fe083612530565b925050600181019050611fc1565b5085935050505092915050565b61200481612611565b82525050565b6000612017601e8361254e565b9150612022826126d1565b602082019050919050565b600061203a60388361254e565b9150612045826126fa565b604082019050919050565b600061205d601b8361254e565b915061206882612749565b602082019050919050565b600061208060158361254e565b915061208b82612772565b602082019050919050565b60006120a360198361254e565b91506120ae8261279b565b602082019050919050565b60006120c6602c8361254e565b91506120d1826127c4565b604082019050919050565b60006120e960228361254e565b91506120f482612813565b604082019050919050565b600061210c60278361254e565b915061211782612862565b604082019050919050565b600061212f60108361254e565b915061213a826128b1565b602082019050919050565b600061215260128361254e565b915061215d826128da565b602082019050919050565b600061217560258361254e565b915061218082612903565b604082019050919050565b6000612198601c8361254e565b91506121a382612952565b602082019050919050565b60006121bb60288361254e565b91506121c68261297b565b604082019050919050565b6121da816125f5565b82525050565b6121e9816125f5565b82525050565b60006020820190506122046000830184611f8e565b92915050565b600060408201905061221f6000830185611f7f565b61222c60208301846121e0565b9392505050565b60006040820190506122486000830185611f8e565b61225560208301846121e0565b9392505050565b600060208201905081810360008301526122768184611f9d565b905092915050565b60006020820190506122936000830184611ffb565b92915050565b600060208201905081810360008301526122b28161200a565b9050919050565b600060208201905081810360008301526122d28161202d565b9050919050565b600060208201905081810360008301526122f281612050565b9050919050565b6000602082019050818103600083015261231281612073565b9050919050565b6000602082019050818103600083015261233281612096565b9050919050565b60006020820190508181036000830152612352816120b9565b9050919050565b60006020820190508181036000830152612372816120dc565b9050919050565b60006020820190508181036000830152612392816120ff565b9050919050565b600060208201905081810360008301526123b281612122565b9050919050565b600060208201905081810360008301526123d281612145565b9050919050565b600060208201905081810360008301526123f281612168565b9050919050565b600060208201905081810360008301526124128161218b565b9050919050565b60006020820190508181036000830152612432816121ae565b9050919050565b600060208201905061244e60008301846121e0565b92915050565b600060408201905061246960008301856121e0565b6124766020830184611f8e565b9392505050565b600060a08201905061249260008301886121e0565b61249f6020830187611f7f565b6124ac60408301866121e0565b6124b96060830185611f8e565b6124c66080830184611f8e565b9695505050505050565b60006080820190506124e560008301876121e0565b6124f26020830186611f8e565b6124ff6040830185611f7f565b61250c60608301846121e0565b95945050505050565b6000819050602082019050919050565b600081519050919050565b6000602082019050919050565b600082825260208201905092915050565b600082825260208201905092915050565b600061256a826125f5565b9150612575836125f5565b925082821015612588576125876126a2565b5b828203905092915050565b600061259e826125d5565b9050919050565b60006125b0826125d5565b9050919050565b60008115159050919050565b60006125ce826125a5565b9050919050565b600073ffffffffffffffffffffffffffffffffffffffff82169050919050565b6000819050919050565b600061260a82612635565b9050919050565b600061261c82612623565b9050919050565b600061262e826125d5565b9050919050565b600061264082612647565b9050919050565b6000612652826125d5565b9050919050565b6000612664826125f5565b91507fffffffffffffffffffffffffffffffffffffffffffffffffffffffffffffffff821415612697576126966126a2565b5b600182019050919050565b7f4e487b7100000000000000000000000000000000000000000000000000000000600052601160045260246000fd5b7f4e6577206f776e657220697320746865207a65726f20616464726573732e0000600082015250565b7f596f75206d7573742068617665206f776e657220617574686f72697a6174696f60008201527f6e20746f20637265617465207472616e73616374696f6e210000000000000000602082015250565b7f5472616e73616374696f6e20646f6573206e6f74206578697374210000000000600082015250565b7f496e73756666696369656e742062616c616e63652e0000000000000000000000600082015250565b7f4164647265737320616c726561647920616e206f776e65722100000000000000600082015250565b7f5472616e73616374696f6e2063726561746f722063616e6e6f74207369676e2060008201527f7472616e73616374696f6e210000000000000000000000000000000000000000602082015250565b7f53657420636f6e747261637420746f6b656e206973206e6f7420616c6c6f776560008201527f6421000000000000000000000000000000000000000000000000000000000000602082015250565b7f43616e6e6f74207369676e207472616e73616374696f6e206d6f72652074686160008201527f6e206f6e63652100000000000000000000000000000000000000000000000000602082015250565b7f496e76616c696420616464726573732100000000000000000000000000000000600082015250565b7f496e737566696369656e742066756e6473210000000000000000000000000000600082015250565b7f5472616e73616374696f6e207265717569726573206d6f7265207369676e617460008201527f7572657321000000000000000000000000000000000000000000000000000000602082015250565b7f5468652063616c6c6572206973206e6f7420746865206f776e65722e00000000600082015250565b7f5472616e73616374696f6e732068617320616c7265616479206265656e20636f60008201527f6d706c6574656421000000000000000000000000000000000000000000000000602082015250565b6129d381612593565b81146129de57600080fd5b50565b6129ea816125a5565b81146129f557600080fd5b50565b612a01816125b7565b8114612a0c57600080fd5b50565b612a18816125c3565b8114612a2357600080fd5b50565b612a2f816125f5565b8114612a3a57600080fd5b5056fea264697066735822122026d3588b7ce9ef8ab52262310bd77f885388d1e05caa551f8c2f8c3515124c4564736f6c63430008030033",
  "immutableReferences": {},
  "source": "// SPDX-License-Identifier: GPL-3.0\npragma solidity >=0.8.0 <0.9.0;\n\nimport \"./CoinvestingDeFiToken.sol\";\nimport \"./utils/Ownable.sol\";\n\ncontract MultiSigWallet is Ownable{\n    // Types\n    enum Authorization {\n        NONE,\n        OWNER,\n        DEACTIVATED\n    }\n\n    struct Transaction {\n        uint id; \n        uint amount;\n        address payable to;\n        address tokenContract;\n        address createdBy;\n        uint signatureCount;\n        bool completed;\n    }\n\n    // Public variables\n    CoinvestingDeFiToken public tokenContract;\n    uint public constant quorum = 2;\n\n    // Internal variables\n    bool internal contractSeted = false;\n\n    // Private variables\n    uint private nextTransactionId;\n    uint[] private _pendingTransactions;\n    address private _admin;\n\n    // Mappings\n    mapping(address => Authorization) private owners;\n    mapping(uint => Transaction) transactions;\n    mapping(uint => mapping(address => bool)) signatures;\n\n    // Modifiers\n    modifier canContractSet() {\n        require(!contractSeted, \"Set contract token is not allowed!\");\n        _;\n    }\n\n    modifier isValidOwner() {\n        require(owners[msg.sender] == Authorization.OWNER,\n        \"You must have owner authorization to create transaction!\");\n        _;\n    }\n\n    // Events\n    event TransactionCreated(uint nextTransactionId, address createdBy, address to,  uint amount);\n    event TransactionCompleted(uint transactionId, address to, uint amount, address createdBy, address executedBy);\n    event TransactionSigned(uint transactionId, address signer);\n    event NewOwnerAdded(address newOwner);\n    event FundsDeposited(address from, uint amount);\n\n    // Constructor\n    constructor() payable {\n        _admin = msg.sender;\n        owners[msg.sender] = Authorization.OWNER;\n    }\n\n    // Receive function\n    receive() external payable{\n        emit FundsDeposited(msg.sender, msg.value);\n    }\n\n    // External functions\n    function activateOwner(address addr) external onlyOwner {\n        require(addr != address(0), \"Invalid address!\");\n        owners[addr] = Authorization.OWNER;\n    }\n\n    function addOwner(address newOwner) external onlyOwner {\n        require(newOwner != address(0), \"Invalid address!\");\n        require(owners[newOwner] == Authorization.NONE, \"Address already an owner!\");\n        owners[newOwner] = Authorization.OWNER;\n        emit NewOwnerAdded(newOwner);\n    }\n\n    function createTransfer(uint amount, address payable to) external isValidOwner {\n        nextTransactionId++;  \n         \n        transactions[nextTransactionId]= Transaction({\n            id:nextTransactionId,\n            amount: amount,\n            to: to,\n            tokenContract: address(tokenContract),\n            createdBy: msg.sender,\n            signatureCount: 0,\n            completed: false\n        });\n\n        _pendingTransactions.push(nextTransactionId);\n        emit TransactionCreated(nextTransactionId, msg.sender, to, amount);\n    }\n\n    function deactivateOwner(address addr) external onlyOwner {\n        require(addr != address(0), \"Invalid address!\");\n        owners[addr] = Authorization.DEACTIVATED;\n    }\n\n    function executeTransaction(uint id) external isValidOwner {\n        require(transactions[id].to != address(0),\n        \"Transaction does not exist!\");\n        require(transactions[id].completed == false,\n        \"Transactions has already been completed!\");\n        require(transactions[id].signatureCount >= quorum,\n        \"Transaction requires more signatures!\");\n        require(tokenContract.balanceOf(address(this)) >= transactions[id].amount,\n        \"Insufficient balance.\");\n\n        transactions[id].completed = true;\n        address payable to = transactions[id].to;\n        uint amount = transactions[id].amount;\n        tokenContract.transfer(to, amount);\n        emit TransactionCompleted(id, to, amount, transactions[id].createdBy, msg.sender);\n    }\n         \n    function setTokenContract(CoinvestingDeFiToken _tokenContract) external onlyOwner canContractSet {\n        tokenContract = _tokenContract;\n        contractSeted = true;\n    }\n\n    function signTransation(uint id) external isValidOwner {\n        require(transactions[id].to != address(0),\n        \"Transaction does not exist!\");\n        require(transactions[id].createdBy != msg.sender,\n        \"Transaction creator cannot sign transaction!\");\n        require(signatures[id][msg.sender] == false,\n        \"Cannot sign transaction more than once!\");\n        \n        Transaction storage transaction = transactions[id];\n        signatures[id][msg.sender] = true;\n        transaction.signatureCount++; \n        emit TransactionSigned(id, msg.sender);\n    }\n\n    function withdraw() external onlyOwner {\n        require(address(this).balance > 0, \"Insuficient funds!\");\n        uint amount = address(this).balance;\n        // sending to prevent re-entrancy attacks\n        address(this).balance - amount;\n        payable(msg.sender).transfer(amount);\n    }\n\n    // External functions that are view\n    function getBalance() external view returns(uint) {\n        return address(this).balance;\n    }\n\n    function getPendingTransactions() external view returns(uint[] memory){\n        return _pendingTransactions;\n    }\n\n    function getTokenBalance() external view returns(uint) {\n        return tokenContract.balanceOf(address(this));\n    }\n\n    function getTransactionSignatureCount(uint transactionId) external view returns(uint) {\n        require(transactions[transactionId].to != address(0),\n        \"Transaction does not exist!\");\n        return transactions[transactionId].signatureCount;\n    }\n}\n",
  "sourcePath": "/home/dev/Playground/coinvesting-core-ropsten/contracts/MultiSigWallet.sol",
  "compiler": {
    "name": "solc",
    "version": "0.8.3+commit.8d00100c.Emscripten.clang"
  },
  "schemaVersion": "3.3.4",
  "updatedAt": "2021-04-10T07:26:55.472Z",
  "networkType": "ethereum",
  "devdoc": {
    "kind": "dev",
    "methods": {
      "owner()": {
        "details": "Returns the address of the current owner."
      },
      "renounceOwnership()": {
        "details": "Leaves the contract without owner. It will not be possible to call `onlyOwner` functions anymore. Can only be called by the current owner. NOTE: Renouncing ownership will leave the contract without an owner, thereby removing any functionality that is only available to the owner."
      },
      "transferOwnership(address)": {
        "details": "Transfers ownership of the contract to a new account (`newOwner`). Can only be called by the current owner."
      }
    },
    "version": 1
  },
  "userdoc": {
    "kind": "user",
    "methods": {},
    "version": 1
  }
}